{
  "_format": "hh-sol-artifact-1",
  "contractName": "NFTCollectivePurchase",
  "sourceName": "contracts/NFTCollectivePurchase.sol",
  "abi": [
    {
      "anonymous": false,
      "inputs": [
        {
          "indexed": false,
          "internalType": "address",
          "name": "previousAdmin",
          "type": "address"
        },
        {
          "indexed": false,
          "internalType": "address",
          "name": "newAdmin",
          "type": "address"
        }
      ],
      "name": "AdminChanged",
      "type": "event"
    },
    {
      "anonymous": false,
      "inputs": [
        {
          "indexed": true,
          "internalType": "address",
          "name": "beacon",
          "type": "address"
        }
      ],
      "name": "BeaconUpgraded",
      "type": "event"
    },
    {
      "anonymous": false,
      "inputs": [
        {
          "indexed": false,
          "internalType": "uint8",
          "name": "version",
          "type": "uint8"
        }
      ],
      "name": "Initialized",
      "type": "event"
    },
    {
      "anonymous": false,
      "inputs": [
        {
          "indexed": true,
          "internalType": "address",
          "name": "previousOwner",
          "type": "address"
        },
        {
          "indexed": true,
          "internalType": "address",
          "name": "newOwner",
          "type": "address"
        }
      ],
      "name": "OwnershipTransferred",
      "type": "event"
    },
    {
      "anonymous": false,
      "inputs": [
        {
          "indexed": false,
          "internalType": "address",
          "name": "account",
          "type": "address"
        }
      ],
      "name": "Paused",
      "type": "event"
    },
    {
      "anonymous": false,
      "inputs": [
        {
          "indexed": false,
          "internalType": "address",
          "name": "account",
          "type": "address"
        }
      ],
      "name": "Stopped",
      "type": "event"
    },
    {
      "anonymous": false,
      "inputs": [
        {
          "indexed": false,
          "internalType": "address",
          "name": "account",
          "type": "address"
        }
      ],
      "name": "Unpaused",
      "type": "event"
    },
    {
      "anonymous": false,
      "inputs": [
        {
          "indexed": false,
          "internalType": "address",
          "name": "account",
          "type": "address"
        }
      ],
      "name": "Unstopped",
      "type": "event"
    },
    {
      "anonymous": false,
      "inputs": [
        {
          "indexed": true,
          "internalType": "address",
          "name": "implementation",
          "type": "address"
        }
      ],
      "name": "Upgraded",
      "type": "event"
    },
    {
      "inputs": [],
      "name": "BUY_LOT_FEE",
      "outputs": [
        {
          "internalType": "uint256",
          "name": "",
          "type": "uint256"
        }
      ],
      "stateMutability": "view",
      "type": "function"
    },
    {
      "inputs": [],
      "name": "FEE_RECEIVER_ADDRESS",
      "outputs": [
        {
          "internalType": "address",
          "name": "",
          "type": "address"
        }
      ],
      "stateMutability": "view",
      "type": "function"
    },
    {
      "inputs": [],
      "name": "ORACLE_ADDRESS",
      "outputs": [
        {
          "internalType": "address",
          "name": "",
          "type": "address"
        }
      ],
      "stateMutability": "view",
      "type": "function"
    },
    {
      "inputs": [],
      "name": "SELL_FRACTION_FEE",
      "outputs": [
        {
          "internalType": "uint256",
          "name": "",
          "type": "uint256"
        }
      ],
      "stateMutability": "view",
      "type": "function"
    },
    {
      "inputs": [],
      "name": "SELL_LOT_FEE",
      "outputs": [
        {
          "internalType": "uint256",
          "name": "",
          "type": "uint256"
        }
      ],
      "stateMutability": "view",
      "type": "function"
    },
    {
      "inputs": [
        {
          "internalType": "address",
          "name": "adminAddress",
          "type": "address"
        }
      ],
      "name": "addAdmin",
      "outputs": [],
      "stateMutability": "nonpayable",
      "type": "function"
    },
    {
      "inputs": [
        {
          "internalType": "address",
          "name": "",
          "type": "address"
        }
      ],
      "name": "admins",
      "outputs": [
        {
          "internalType": "bool",
          "name": "",
          "type": "bool"
        }
      ],
      "stateMutability": "view",
      "type": "function"
    },
    {
      "inputs": [
        {
          "internalType": "uint256",
          "name": "fractionLotId",
          "type": "uint256"
        }
      ],
      "name": "buyFraction",
      "outputs": [],
      "stateMutability": "payable",
      "type": "function"
    },
    {
      "inputs": [
        {
          "internalType": "bytes4",
          "name": "marketplaceId",
          "type": "bytes4"
        },
        {
          "internalType": "uint256",
          "name": "lotId",
          "type": "uint256"
        },
        {
          "internalType": "uint256",
          "name": "amount",
          "type": "uint256"
        },
        {
          "components": [
            {
              "internalType": "address",
              "name": "tokenAddress",
              "type": "address"
            },
            {
              "internalType": "uint8",
              "name": "decimals",
              "type": "uint8"
            },
            {
              "internalType": "uint256",
              "name": "price",
              "type": "uint256"
            },
            {
              "internalType": "uint256",
              "name": "collected",
              "type": "uint256"
            },
            {
              "internalType": "uint256",
              "name": "occupancy",
              "type": "uint256"
            },
            {
              "internalType": "address",
              "name": "tokenContractAddress",
              "type": "address"
            },
            {
              "internalType": "uint256",
              "name": "tokenId",
              "type": "uint256"
            },
            {
              "internalType": "uint256",
              "name": "tokenAmount",
              "type": "uint256"
            },
            {
              "internalType": "enum Models.LotStatus",
              "name": "status",
              "type": "uint8"
            }
          ],
          "internalType": "struct Models.Lot",
          "name": "lotData",
          "type": "tuple"
        },
        {
          "internalType": "bytes",
          "name": "inputData",
          "type": "bytes"
        },
        {
          "internalType": "bytes",
          "name": "signature",
          "type": "bytes"
        }
      ],
      "name": "buyLot",
      "outputs": [],
      "stateMutability": "payable",
      "type": "function"
    },
    {
      "inputs": [
        {
          "internalType": "uint256",
          "name": "fractionLotId",
          "type": "uint256"
        }
      ],
      "name": "cancelSellFraction",
      "outputs": [],
      "stateMutability": "nonpayable",
      "type": "function"
    },
    {
      "inputs": [
        {
          "internalType": "address",
          "name": "newOracleAddress",
          "type": "address"
        }
      ],
      "name": "changeOracle",
      "outputs": [],
      "stateMutability": "nonpayable",
      "type": "function"
    },
    {
      "inputs": [
        {
          "internalType": "uint256",
          "name": "lotId",
          "type": "uint256"
        }
      ],
      "name": "claimLot",
      "outputs": [],
      "stateMutability": "nonpayable",
      "type": "function"
    },
    {
      "inputs": [
        {
          "internalType": "uint256",
          "name": "lotId",
          "type": "uint256"
        }
      ],
      "name": "claimReward",
      "outputs": [],
      "stateMutability": "nonpayable",
      "type": "function"
    },
    {
      "inputs": [
        {
          "internalType": "uint256",
          "name": "lotId",
          "type": "uint256"
        }
      ],
      "name": "declineBid",
      "outputs": [],
      "stateMutability": "nonpayable",
      "type": "function"
    },
    {
      "inputs": [],
      "name": "fractionLotsNumber",
      "outputs": [
        {
          "internalType": "uint256",
          "name": "",
          "type": "uint256"
        }
      ],
      "stateMutability": "view",
      "type": "function"
    },
    {
      "inputs": [
        {
          "internalType": "address",
          "name": "",
          "type": "address"
        },
        {
          "internalType": "uint256",
          "name": "",
          "type": "uint256"
        }
      ],
      "name": "fractions",
      "outputs": [
        {
          "internalType": "uint256",
          "name": "",
          "type": "uint256"
        }
      ],
      "stateMutability": "view",
      "type": "function"
    },
    {
      "inputs": [
        {
          "internalType": "uint256",
          "name": "",
          "type": "uint256"
        }
      ],
      "name": "fractionsMarket",
      "outputs": [
        {
          "internalType": "uint256",
          "name": "lotId",
          "type": "uint256"
        },
        {
          "internalType": "address",
          "name": "seller",
          "type": "address"
        },
        {
          "internalType": "uint256",
          "name": "fraction",
          "type": "uint256"
        },
        {
          "internalType": "uint256",
          "name": "price",
          "type": "uint256"
        },
        {
          "internalType": "enum Models.LotStatus",
          "name": "status",
          "type": "uint8"
        }
      ],
      "stateMutability": "view",
      "type": "function"
    },
    {
      "inputs": [
        {
          "internalType": "address",
          "name": "committeeMember1",
          "type": "address"
        },
        {
          "internalType": "address",
          "name": "committeeMember2",
          "type": "address"
        },
        {
          "internalType": "address",
          "name": "committeeMember3",
          "type": "address"
        },
        {
          "internalType": "address",
          "name": "oracleAddress",
          "type": "address"
        }
      ],
      "name": "initialize",
      "outputs": [],
      "stateMutability": "nonpayable",
      "type": "function"
    },
    {
      "inputs": [
        {
          "internalType": "uint256",
          "name": "",
          "type": "uint256"
        },
        {
          "internalType": "address",
          "name": "",
          "type": "address"
        }
      ],
      "name": "lotBids",
      "outputs": [
        {
          "internalType": "uint256",
          "name": "amount",
          "type": "uint256"
        },
        {
          "internalType": "uint256",
          "name": "fraction",
          "type": "uint256"
        },
        {
          "internalType": "uint256",
          "name": "time",
          "type": "uint256"
        }
      ],
      "stateMutability": "view",
      "type": "function"
    },
    {
      "inputs": [
        {
          "internalType": "uint256",
          "name": "",
          "type": "uint256"
        },
        {
          "internalType": "uint256",
          "name": "",
          "type": "uint256"
        }
      ],
      "name": "lotParticipants",
      "outputs": [
        {
          "internalType": "address",
          "name": "",
          "type": "address"
        }
      ],
      "stateMutability": "view",
      "type": "function"
    },
    {
      "inputs": [
        {
          "internalType": "uint256",
          "name": "",
          "type": "uint256"
        }
      ],
      "name": "lots",
      "outputs": [
        {
          "internalType": "address",
          "name": "tokenAddress",
          "type": "address"
        },
        {
          "internalType": "uint8",
          "name": "decimals",
          "type": "uint8"
        },
        {
          "internalType": "uint256",
          "name": "price",
          "type": "uint256"
        },
        {
          "internalType": "uint256",
          "name": "collected",
          "type": "uint256"
        },
        {
          "internalType": "uint256",
          "name": "occupancy",
          "type": "uint256"
        },
        {
          "internalType": "address",
          "name": "tokenContractAddress",
          "type": "address"
        },
        {
          "internalType": "uint256",
          "name": "tokenId",
          "type": "uint256"
        },
        {
          "internalType": "uint256",
          "name": "tokenAmount",
          "type": "uint256"
        },
        {
          "internalType": "enum Models.LotStatus",
          "name": "status",
          "type": "uint8"
        }
      ],
      "stateMutability": "view",
      "type": "function"
    },
    {
      "inputs": [
        {
          "internalType": "address",
          "name": "operator",
          "type": "address"
        },
        {
          "internalType": "address",
          "name": "from",
          "type": "address"
        },
        {
          "internalType": "uint256[]",
          "name": "ids",
          "type": "uint256[]"
        },
        {
          "internalType": "uint256[]",
          "name": "values",
          "type": "uint256[]"
        },
        {
          "internalType": "bytes",
          "name": "data",
          "type": "bytes"
        }
      ],
      "name": "onERC1155BatchReceived",
      "outputs": [
        {
          "internalType": "bytes4",
          "name": "",
          "type": "bytes4"
        }
      ],
      "stateMutability": "nonpayable",
      "type": "function"
    },
    {
      "inputs": [
        {
          "internalType": "address",
          "name": "operator",
          "type": "address"
        },
        {
          "internalType": "address",
          "name": "from",
          "type": "address"
        },
        {
          "internalType": "uint256",
          "name": "id",
          "type": "uint256"
        },
        {
          "internalType": "uint256",
          "name": "value",
          "type": "uint256"
        },
        {
          "internalType": "bytes",
          "name": "data",
          "type": "bytes"
        }
      ],
      "name": "onERC1155Received",
      "outputs": [
        {
          "internalType": "bytes4",
          "name": "",
          "type": "bytes4"
        }
      ],
      "stateMutability": "nonpayable",
      "type": "function"
    },
    {
      "inputs": [
        {
          "internalType": "address",
          "name": "operator",
          "type": "address"
        },
        {
          "internalType": "address",
          "name": "from",
          "type": "address"
        },
        {
          "internalType": "uint256",
          "name": "tokenId",
          "type": "uint256"
        },
        {
          "internalType": "bytes",
          "name": "data",
          "type": "bytes"
        }
      ],
      "name": "onERC721Received",
      "outputs": [
        {
          "internalType": "bytes4",
          "name": "",
          "type": "bytes4"
        }
      ],
      "stateMutability": "nonpayable",
      "type": "function"
    },
    {
      "inputs": [],
      "name": "owner",
      "outputs": [
        {
          "internalType": "address",
          "name": "",
          "type": "address"
        }
      ],
      "stateMutability": "view",
      "type": "function"
    },
    {
      "inputs": [],
      "name": "pause",
      "outputs": [],
      "stateMutability": "nonpayable",
      "type": "function"
    },
    {
      "inputs": [],
      "name": "paused",
      "outputs": [
        {
          "internalType": "bool",
          "name": "",
          "type": "bool"
        }
      ],
      "stateMutability": "view",
      "type": "function"
    },
    {
      "inputs": [],
      "name": "proxiableUUID",
      "outputs": [
        {
          "internalType": "bytes32",
          "name": "",
          "type": "bytes32"
        }
      ],
      "stateMutability": "view",
      "type": "function"
    },
    {
      "inputs": [
        {
          "internalType": "uint256",
          "name": "lotId",
          "type": "uint256"
        }
      ],
      "name": "recordLotSold",
      "outputs": [],
      "stateMutability": "payable",
      "type": "function"
    },
    {
      "inputs": [
        {
          "internalType": "address",
          "name": "adminAddress",
          "type": "address"
        }
      ],
      "name": "removeAdmin",
      "outputs": [],
      "stateMutability": "nonpayable",
      "type": "function"
    },
    {
      "inputs": [],
      "name": "renounceOwnership",
      "outputs": [],
      "stateMutability": "nonpayable",
      "type": "function"
    },
    {
      "inputs": [
        {
          "internalType": "uint256",
          "name": "lotId",
          "type": "uint256"
        },
        {
          "internalType": "uint256",
          "name": "amount",
          "type": "uint256"
        },
        {
          "internalType": "uint256",
          "name": "price",
          "type": "uint256"
        }
      ],
      "name": "sellFraction",
      "outputs": [],
      "stateMutability": "nonpayable",
      "type": "function"
    },
    {
      "inputs": [
        {
          "internalType": "bytes4",
          "name": "marketplaceId",
          "type": "bytes4"
        },
        {
          "internalType": "uint256",
          "name": "lotId",
          "type": "uint256"
        },
        {
          "components": [
            {
              "internalType": "address",
              "name": "tokenAddress",
              "type": "address"
            },
            {
              "internalType": "uint8",
              "name": "decimals",
              "type": "uint8"
            },
            {
              "internalType": "uint256",
              "name": "price",
              "type": "uint256"
            },
            {
              "internalType": "uint256",
              "name": "collected",
              "type": "uint256"
            },
            {
              "internalType": "uint256",
              "name": "occupancy",
              "type": "uint256"
            },
            {
              "internalType": "address",
              "name": "tokenContractAddress",
              "type": "address"
            },
            {
              "internalType": "uint256",
              "name": "tokenId",
              "type": "uint256"
            },
            {
              "internalType": "uint256",
              "name": "tokenAmount",
              "type": "uint256"
            },
            {
              "internalType": "enum Models.LotStatus",
              "name": "status",
              "type": "uint8"
            }
          ],
          "internalType": "struct Models.Lot",
          "name": "lotData",
          "type": "tuple"
        },
        {
          "internalType": "bytes",
          "name": "signature",
          "type": "bytes"
        }
      ],
      "name": "sellLot",
      "outputs": [],
      "stateMutability": "nonpayable",
      "type": "function"
    },
    {
      "inputs": [
        {
          "internalType": "uint256",
          "name": "lotId",
          "type": "uint256"
        }
      ],
      "name": "sendBackFractions",
      "outputs": [],
      "stateMutability": "nonpayable",
      "type": "function"
    },
    {
      "inputs": [
        {
          "internalType": "address",
          "name": "newFeeReceiverAddress",
          "type": "address"
        }
      ],
      "name": "setFeeReceiverAddress",
      "outputs": [],
      "stateMutability": "nonpayable",
      "type": "function"
    },
    {
      "inputs": [
        {
          "internalType": "uint256",
          "name": "buyLotFee",
          "type": "uint256"
        },
        {
          "internalType": "uint256",
          "name": "sellLotFee",
          "type": "uint256"
        },
        {
          "internalType": "uint256",
          "name": "sellFractionFee",
          "type": "uint256"
        }
      ],
      "name": "setFees",
      "outputs": [],
      "stateMutability": "nonpayable",
      "type": "function"
    },
    {
      "inputs": [],
      "name": "stop",
      "outputs": [],
      "stateMutability": "nonpayable",
      "type": "function"
    },
    {
      "inputs": [],
      "name": "stopped",
      "outputs": [
        {
          "internalType": "bool",
          "name": "",
          "type": "bool"
        }
      ],
      "stateMutability": "view",
      "type": "function"
    },
    {
      "inputs": [
        {
          "internalType": "bytes4",
          "name": "interfaceId",
          "type": "bytes4"
        }
      ],
      "name": "supportsInterface",
      "outputs": [
        {
          "internalType": "bool",
          "name": "",
          "type": "bool"
        }
      ],
      "stateMutability": "pure",
      "type": "function"
    },
    {
      "inputs": [
        {
          "internalType": "address",
          "name": "receiver",
          "type": "address"
        },
        {
          "internalType": "uint256",
          "name": "lotId",
          "type": "uint256"
        },
        {
          "internalType": "uint256",
          "name": "amount",
          "type": "uint256"
        }
      ],
      "name": "transferFraction",
      "outputs": [],
      "stateMutability": "nonpayable",
      "type": "function"
    },
    {
      "inputs": [
        {
          "internalType": "address",
          "name": "newOwner",
          "type": "address"
        }
      ],
      "name": "transferOwnership",
      "outputs": [],
      "stateMutability": "nonpayable",
      "type": "function"
    },
    {
      "inputs": [],
      "name": "unpause",
      "outputs": [],
      "stateMutability": "nonpayable",
      "type": "function"
    },
    {
      "inputs": [],
      "name": "unstop",
      "outputs": [],
      "stateMutability": "nonpayable",
      "type": "function"
    },
    {
      "inputs": [
        {
          "internalType": "address",
          "name": "newImplementation",
          "type": "address"
        }
      ],
      "name": "upgradeTo",
      "outputs": [],
      "stateMutability": "nonpayable",
      "type": "function"
    },
    {
      "inputs": [
        {
          "internalType": "address",
          "name": "newImplementation",
          "type": "address"
        },
        {
          "internalType": "bytes",
          "name": "data",
          "type": "bytes"
        }
      ],
      "name": "upgradeToAndCall",
      "outputs": [],
      "stateMutability": "payable",
      "type": "function"
    },
    {
      "inputs": [
        {
          "internalType": "address",
          "name": "",
          "type": "address"
        },
        {
          "internalType": "uint256",
          "name": "",
          "type": "uint256"
        }
      ],
      "name": "userLots",
      "outputs": [
        {
          "internalType": "uint256",
          "name": "",
          "type": "uint256"
        }
      ],
      "stateMutability": "view",
      "type": "function"
    },
    {
      "inputs": [
        {
          "internalType": "address",
          "name": "",
          "type": "address"
        }
      ],
      "name": "users",
      "outputs": [
        {
          "internalType": "address",
          "name": "addr",
          "type": "address"
        }
      ],
      "stateMutability": "view",
      "type": "function"
    },
    {
      "stateMutability": "payable",
      "type": "receive"
    }
  ],
  "bytecode": "0x60a0604052306080526064610132819055610133819055610134553480156200002757600080fd5b506200003262000038565b620000fa565b600054610100900460ff1615620000a55760405162461bcd60e51b815260206004820152602760248201527f496e697469616c697a61626c653a20636f6e747261637420697320696e697469604482015266616c697a696e6760c81b606482015260840160405180910390fd5b60005460ff9081161015620000f8576000805460ff191660ff9081179091556040519081527f7f26b83ff96e1f2b6a682f133852f6798a09c465da95921460cefb38474024989060200160405180910390a15b565b608051615f036200013260003960008181610bcc01528181610c0c01528181610e2701528181610e670152610ee30152615f036000f3fe60806040526004361061021c5760003560e01c806301ffc9a71461026857806306625e8a1461029d57806307da68f5146102bd5780630ee4b062146102d2578063150b7a0214610319578063157bc7ad146103525780631785f53c146103a95780633659cfe6146103c95780633f4ba83a146103e9578063429b62e5146103fe57806347c421b51461042f5780634f1ef2861461044f57806352d1902d1461046257806359ae5007146104775780635c975abb146104975780635d83b5d6146104af57806361bbf955146104cf57806366adb83a146104ef5780637048027514610558578063715018a61461057857806375f12b211461058d5780638455ff9e146105a55780638456cb59146105b857806386a4b0f1146105cd578063872c446d146105fa5780638da5cb5b146106115780638e1a3b6e14610626578063951eac29146106395780639c4e3148146106505780639cca2f6c14610670578063a87430ba14610687578063ab553411146106be578063ae169a50146106de578063bc197c81146106fe578063bde32d5c1461071e578063cec10c111461073e578063d141e7eb1461075e578063e4f77dab14610775578063f1648e8414610795578063f23a6e611461081e578063f2da06641461083e578063f2fde38b1461085e578063f32f755a1461087e578063f8bd71c714610891578063f8c8765e146108a6578063fa66434d146108c6578063fcfc430c146108e757600080fd5b3661026357610229610908565b6001600160a01b03166108fc349081150290604051600060405180830381858888f19350505050158015610261573d6000803e3d6000fd5b005b600080fd5b34801561027457600080fd5b50610288610283366004614f8d565b610917565b60405190151581526020015b60405180910390f35b3480156102a957600080fd5b506102616102b8366004614fc8565b610969565b3480156102c957600080fd5b50610261610a87565b3480156102de57600080fd5b5061030b6102ed366004614ffd565b61013960209081526000928352604080842090915290825290205481565b604051908152602001610294565b34801561032557600080fd5b50610339610334366004615071565b610a99565b6040516001600160e01b03199091168152602001610294565b34801561035e57600080fd5b5061039a61036d3660046150e3565b61013660209081526000928352604080842090915290825290208054600182015460029092015490919083565b60405161029493929190615113565b3480156103b557600080fd5b506102616103c4366004615129565b610af0565b3480156103d557600080fd5b506102616103e4366004615129565b610bc2565b3480156103f557600080fd5b50610261610c8a565b34801561040a57600080fd5b50610288610419366004615129565b6101316020526000908152604090205460ff1681565b34801561043b57600080fd5b5061026161044a366004615129565b610cdc565b61026161045d3660046151b5565b610e1d565b34801561046e57600080fd5b5061030b610ed6565b34801561048357600080fd5b5061030b610492366004614ffd565b610f84565b3480156104a357600080fd5b5060c95460ff16610288565b3480156104bb57600080fd5b506102616104ca36600461525c565b610fb6565b3480156104db57600080fd5b506102616104ea36600461525c565b611278565b3480156104fb57600080fd5b5061054761050a36600461525c565b61013a602052600090815260409020805460018201546002830154600384015460049094015492936001600160a01b039092169290919060ff1685565b6040516102949594939291906152ad565b34801561056457600080fd5b50610261610573366004615129565b6113a3565b34801561058457600080fd5b506102616114f0565b34801561059957600080fd5b5060fb5460ff16610288565b6102616105b3366004615392565b611502565b3480156105c457600080fd5b50610261611ee4565b3480156105d957600080fd5b506105ed6105e8366004615439565b611f36565b604051610294919061545b565b34801561060657600080fd5b5061030b6101345481565b34801561061d57600080fd5b506105ed610908565b61026161063436600461525c565b611f6f565b34801561064557600080fd5b5061030b6101325481565b34801561065c57600080fd5b5061026161066b366004615129565b61227b565b34801561067c57600080fd5b5061030b61013b5481565b34801561069357600080fd5b506105ed6106a2366004615129565b61013c602052600090815260409020546001600160a01b031681565b3480156106ca57600080fd5b506102616106d936600461546f565b6123cd565b3480156106ea57600080fd5b506102616106f936600461525c565b612583565b34801561070a57600080fd5b506103396107193660046154df565b6128dd565b34801561072a57600080fd5b5061026161073936600461557c565b612968565b34801561074a57600080fd5b5061026161075936600461546f565b612dd2565b34801561076a57600080fd5b5061030b6101335481565b34801561078157600080fd5b5061026161079036600461525c565b612f52565b3480156107a157600080fd5b506108096107b036600461525c565b61013560205260009081526040902080546001820154600283015460038401546004850154600586015460068701546007909701546001600160a01b038088169860ff600160a01b909904891698949091169390911689565b604051610294999897969594939291906155dc565b34801561082a57600080fd5b5061033961083936600461563d565b6132e0565b34801561084a57600080fd5b5061026161085936600461525c565b613338565b34801561086a57600080fd5b50610261610879366004615129565b61377e565b61026161088c36600461525c565b6137f4565b34801561089d57600080fd5b5061026161397b565b3480156108b257600080fd5b506102616108c13660046156b8565b61398b565b3480156108d257600080fd5b5061012e546105ed906001600160a01b031681565b3480156108f357600080fd5b5061012d546105ed906001600160a01b031681565b6097546001600160a01b031690565b60006001600160e01b031982166301ffc9a760e01b148061094857506001600160e01b03198216630a85bd0160e11b145b8061096357506001600160e01b03198216630271189760e51b145b92915050565b610971613caa565b610979613cf0565b600081116109a25760405162461bcd60e51b815260040161099990615714565b60405180910390fd5b336000908152610139602090815260408083208584529091529020548111156109dd5760405162461bcd60e51b815260040161099990615745565b6001600160a01b038316610a2e5760405162461bcd60e51b8152602060048201526018602482015277496e76616c6964207265636569766572206164647265737360401b6044820152606401610999565b610a3a33848484613d38565b6040805182815242602082015283916001600160a01b0386169133917fa5e8f4e070f193b8948b33a4973155913a85b93f761a3124ea9d7cb14e54bcb791015b60405180910390a4505050565b610a8f613f68565b610a97613fc7565b565b600083866001600160a01b0316336001600160a01b0316600080516020615e07833981519152886000888842604051610ad69594939291906157b5565b60405180910390a450630a85bd0160e11b95945050505050565b610af8613f68565b6001600160a01b0381166000908152610131602052604090205460ff16610b645760405162461bcd60e51b815260206004820152602c6024820152600080516020615eae83398151915260448201526b3737ba1030b71030b236b4b760a11b6064820152608401610999565b6001600160a01b0381166000818152610131602052604090819020805460ff19169055517f7b0884b4b6bb4e0c1385ad42168fa556c14d4d799c1bf22f081aff3efff6ea0c90610bb79042815260200190565b60405180910390a250565b6001600160a01b037f0000000000000000000000000000000000000000000000000000000000000000163003610c0a5760405162461bcd60e51b8152600401610999906157ef565b7f00000000000000000000000000000000000000000000000000000000000000006001600160a01b0316610c3c61401b565b6001600160a01b031614610c625760405162461bcd60e51b815260040161099990615829565b610c6b81614037565b60408051600080825260208201909252610c879183919061403f565b50565b33610c93610908565b6001600160a01b03161480610cb85750336000908152610131602052604090205460ff165b610cd45760405162461bcd60e51b815260040161099990615863565b610a976141af565b610ce4613f68565b6001600160a01b03811615801590610d0b5750610d09816001600160a01b03166141e8565b155b610d575760405162461bcd60e51b815260206004820152601d60248201527f41646d696e3a20696e76616c6964206f7261636c6520616464726573730000006044820152606401610999565b61012d546001600160a01b0390811690821603610db55760405162461bcd60e51b81526020600482015260286024820152600080516020615e678339815191526044820152676e206f7261636c6560c01b6064820152608401610999565b61012d546040514281526001600160a01b038381169216907f08be022e0f3d9204080fc56bec563e9e4bc1043d08f9f8c84dadcdc67f6abc809060200160405180910390a361012d80546001600160a01b0319166001600160a01b0392909216919091179055565b6001600160a01b037f0000000000000000000000000000000000000000000000000000000000000000163003610e655760405162461bcd60e51b8152600401610999906157ef565b7f00000000000000000000000000000000000000000000000000000000000000006001600160a01b0316610e9761401b565b6001600160a01b031614610ebd5760405162461bcd60e51b815260040161099990615829565b610ec682614037565b610ed28282600161403f565b5050565b6000306001600160a01b037f00000000000000000000000000000000000000000000000000000000000000001614610f715760405162461bcd60e51b815260206004820152603860248201527f555550535570677261646561626c653a206d757374206e6f742062652063616c6044820152771b1959081d1a1c9bdd59da0819195b1959d85d1958d85b1b60421b6064820152608401610999565b50600080516020615e4783398151915290565b6101386020528160005260406000208181548110610fa157600080fd5b90600052602060002001600091509150505481565b33610fbf610908565b6001600160a01b03161480610fe45750336000908152610131602052604090205460ff165b6110005760405162461bcd60e51b815260040161099990615863565b6000818152610135602052604081206007015460ff16600481111561102757611027615275565b146110445760405162461bcd60e51b8152600401610999906158aa565b6000818152610135602090815260408083206002810184905560038101849055600701805460ff19166004179055610137909152812054905b818110156112125760008381526101366020908152604080832061013790925282208054839190859081106110b4576110b46158f8565b60009182526020808320909101546001600160a01b031683528201929092526040019020600181015490915015806110eb57508054155b156110f9575060010161107d565b80546000808355600183015561013254612710906111179082615924565b6111219083615937565b61112b919061594e565b600086815261013560205260409020549091506001600160a01b03166111b25760008581526101376020526040902080548490811061116c5761116c6158f8565b60009182526020822001546040516001600160a01b039091169183156108fc02918491818181858888f193505050501580156111ac573d6000803e3d6000fd5b50611208565b60008581526101376020526040902080546112089190859081106111d8576111d86158f8565b60009182526020808320909101548883526101359091526040909120546001600160a01b039081169116836141f7565b505060010161107d565b506040805160008082526020808301808552868352610137909152929020905161123c9290614ef6565b50604051428152829033907f2a1d7c6915ceb75f0d79ef2e656733c3f81c94e5c90e49a5115cec2080dd26229060200160405180910390a35050565b611280613cf0565b600081815261013a6020526040812060049081015460ff16908111156112a8576112a8615275565b146112c55760405162461bcd60e51b815260040161099990615970565b600081815261013a60205260409020600101546001600160a01b031633146113415760405162461bcd60e51b815260206004820152602960248201527f596f7520617265206e6f7420616e206f776e6572206f6620746869732066726160448201526818dd1a5bdb881b1bdd60ba1b6064820152608401610999565b600081815261013a60209081526040918290206004808201805460ff1916909117905554825184815242928101929092529133917fae72462ce3b0fb699ec5e7c6063f726ff949c9f1cd073aa1d2b4aaf5edf61426910160405180910390a350565b6113ab613f68565b6113bd816001600160a01b03166141e8565b1580156113d257506001600160a01b03811615155b61142c5760405162461bcd60e51b815260206004820152602560248201527f41646d696e697374726174696f6e3a20696e76616c69642061646d696e206164604482015264647265737360d81b6064820152608401610999565b6001600160a01b0381166000908152610131602052604090205460ff161561149a5760405162461bcd60e51b815260206004820152602d6024820152600080516020615eae83398151915260448201526c30b63932b0b23c9030b236b4b760991b6064820152608401610999565b6001600160a01b0381166000818152610131602052604090819020805460ff19166001179055517fbd5dcf0b25226117c4a68a0129ffdd4b0541ef5e482ad7de9a96ccb6d6a8ebde90610bb79042815260200190565b6114f8613f68565b610a97600061424d565b61150a613caa565b611512613cf0565b600085604001511161155a5760405162461bcd60e51b8152602060048201526011602482015270496e76616c6964206c6f7420707269636560781b6044820152606401610999565b600086116115a95760405162461bcd60e51b815260206004820152601c60248201527b496e76616c6964207061796d656e7420616d6f756e742076616c756560201b6044820152606401610999565b6000612710610132546127106115bf9190615924565b6115c99089615937565b6115d3919061594e565b86519091506001600160a01b03161515806115ee5750803410155b6116335760405162461bcd60e51b8152602060048201526016602482015275125b9d985b1a59081c185e5b595b9d08185b5bdd5b9d60521b6044820152606401610999565b60008060008a8152610135602052604090206007015460ff16600481111561165d5761165d615275565b14801561167a575060008981526101356020526040902060030154155b156118d65761012d546001600160a01b031661172b6116ef61169d8d8d8c61429f565b6040517b0ca2ba3432b932bab69029b4b3b732b21026b2b9b9b0b3b29d05199960211b6020820152603c8101829052600090605c01604051602081830303815290604052805190602001209050919050565b86868080601f0160208091040260200160405190810160405280939291908181526020018383808284376000920191909152506142f892505050565b6001600160a01b0316146117515760405162461bcd60e51b8152600401610999906159b9565b60405180610120016040528088600001516001600160a01b03168152602001886020015160ff1681526020018860400151815260200160008152602001600081526020018860a001516001600160a01b031681526020018860c0015181526020018860e001518152602001600060048111156117cf576117cf615275565b905260008a81526101356020908152604091829020835181549285015160ff16600160a01b026001600160a81b03199093166001600160a01b039182161792909217815591830151600180840191909155606084015160028401556080840151600384015560a084015160048085018054929094166001600160a01b0319929092169190911790925560c0840151600584015560e084015160068401556101008401516007840180549193909260ff199092169190849081111561189557611895615275565b021790555050604051428152600192508a91507f1311c8850315020cefa8da4a36e3e81b68690c96854daf6126a8a0dc81b8389d9060200160405180910390a25b600089815261013560205260408120600181015490919081906119028c68056bc75e2d63100000615937565b61190c919061594e565b60008d815261013660209081526040808320338452909152902060010154909150670de0b6b3a764000090611942908390615924565b101561198f5760405162461bcd60e51b815260206004820152601c60248201527b596f7572206672616374696f6e2073686f756c64206265203e3d312560201b6044820152606401610999565b82546001600160a01b0316156119b65782546119b6906001600160a01b0316333088614377565b8a8360020160008282546119ca9190615924565b92505081905550808360030160008282546119e59190615924565b90915550506001830154600284015410801590611a0f575068056bc75e2d63100000836003015410155b15611c6357600083600101548460020154611a2a91906159df565b9050600068056bc75e2d631000008560030154611a4791906159df565b90508115611ac0576001850154600286015568056bc75e2d63100000600386015584546001600160a01b0316611aaa57604051339083156108fc029084906000818181858888f19350505050158015611aa4573d6000803e3d6000fd5b50611ac0565b8454611ac0906001600160a01b031633846141f7565b8115611ad357611ad0828e6159df565b9c505b8015611ae657611ae381846159df565b92505b89611b2c5760405162461bcd60e51b8152602060048201526016602482015275496e76616c69642062757920696e707574206461746160501b6044820152606401610999565b6007850180546001919060ff191682800217905550611c228f8c8c8080601f0160208091040260200160405190810160405280939291908181526020018383808284376000920191909152505060408051610120810182528b546001600160a01b03808216835260ff600160a01b9092048216602084015260018e01549383019390935260028d0154606083015260038d015460808301526004808e015490931660a083015260058d015460c083015260068d015460e083015260078d01549194508c9350610100850192911690811115611c0957611c09615275565b6004811115611c1a57611c1a615275565b905250614398565b600193508d7f85b2801100f28fc35fd959cd22ae292ba862fb9aea7b58f70348b2c1f1045e4d42604051611c5891815260200190565b60405180910390a250505b60008c8152610136602090815260408083203384529091528120600101549003611d5a5760405180606001604052808c81526020018281526020014281525061013660008e81526020019081526020016000206000336001600160a01b03166001600160a01b0316815260200190815260200160002060008201518160000155602082015181600101556040820151816002015590505061013760008d8152602001908152602001600020339080600181540180825580915050600190039060005260206000200160009091909190916101000a8154816001600160a01b0302191690836001600160a01b03160217905550611dbc565b60008c815261013660209081526040808320338452909152812080548d9290611d84908490615924565b909155505060008c81526101366020908152604080832033845290915281206001018054839290611db6908490615924565b90915550505b8115611e8257611dcb8c6145d6565b82546001600160a01b0316611e3d5761012e546101325460018501546001600160a01b03909216916108fc9161271091611e059190615937565b611e0f919061594e565b6040518115909202916000818181858888f19350505050158015611e37573d6000803e3d6000fd5b50611e82565b61012e54610132546001850154611e82926001600160a01b03169161271091611e669190615937565b611e70919061594e565b85546001600160a01b031691906141f7565b604080518c81526020810183905285151581830152831515606082015242608082015290518d9133917fc70738c6eb053fce47fa85b7eaf75421fbab39b333d29bbc06fa5086e0380d149181900360a00190a350505050505050505050505050565b33611eed610908565b6001600160a01b03161480611f125750336000908152610131602052604090205460ff165b611f2e5760405162461bcd60e51b815260040161099990615863565b610a97614764565b6101376020528160005260406000208181548110611f5357600080fd5b6000918252602090912001546001600160a01b03169150829050565b611f77613caa565b611f7f613cf0565b600081815261013a6020526040812060049081015460ff1690811115611fa757611fa7615275565b14611fc45760405162461bcd60e51b815260040161099990615970565b600081815261013a602052604090206003015434146120405760405162461bcd60e51b815260206004820152603260248201527f496e76616c69642045544820616d6f756e7420746f20636f76657220746865206044820152716672616374696f6e206c6f7420707269636560701b6064820152608401610999565b600081815261013a60209081526040808320815160a0810183528154815260018201546001600160a01b03169381019390935260028101549183019190915260038101546060830152600480820154608084019160ff909116908111156120a9576120a9615275565b60048111156120ba576120ba615275565b9052506040808201516020808401516001600160a01b031660009081526101398252838120855182529091529190912054919250111561214f5760405162461bcd60e51b815260206004820152602a60248201527f53656c6c65722068617665206e6f20656e6f756768206672616374696f6e206f60448201526919881d1a1a5cc81b1bdd60b21b6064820152608401610999565b61216781602001513383600001518460400151613d38565b60018160800151600481111561217f5761217f615275565b505060006127106101345483606001516121999190615937565b6121a3919061594e565b905081602001516001600160a01b03166108fc8284606001516121c691906159df565b6040518115909202916000818181858888f193505050501580156121ee573d6000803e3d6000fd5b5061012e546040516001600160a01b039091169082156108fc029083906000818181858888f1935050505015801561222a573d6000803e3d6000fd5b50815160208301516040808501516060860151915133936001600160a01b0316927fb7889afc24a1377827a403ddae2be8727e901df4a0ff6e09ce3b1d28aa5876c092610a7a928a929042906159f2565b612283613f68565b6001600160a01b038116158015906122aa57506122a8816001600160a01b03166141e8565b155b6123025760405162461bcd60e51b815260206004820152602360248201527f41646d696e3a20696e76616c696420666565207265636569766572206164647260448201526265737360e81b6064820152608401610999565b61012e546001600160a01b03908116908216036123655760405162461bcd60e51b815260206004820152602d6024820152600080516020615e6783398151915260448201526c103332b2903932b1b2b4bb32b960991b6064820152608401610999565b61012e546040514281526001600160a01b038381169216907f673158aa8bce2ad3d4d5d2d7111a00a085640787347f53a3ba44980e1d1be87a9060200160405180910390a361012e80546001600160a01b0319166001600160a01b0392909216919091179055565b6123d5613caa565b6123dd613cf0565b600082116123fd5760405162461bcd60e51b815260040161099990615714565b336000908152610139602090815260408083208684529091529020548211156124385760405162461bcd60e51b815260040161099990615745565b600081116124885760405162461bcd60e51b815260206004820152601f60248201527f496e76616c69642073656c6c206672616374696f6e206c6f74207072696365006044820152606401610999565b6040805160a0810182528481523360208083019182528284018681526060840186815260006080860181815261013b54825261013a90945295909520845181559251600180850180546001600160a01b0319166001600160a01b039093169290921790915590516002840155935160038301555160048083018054949593949293909260ff191691849081111561252157612521615275565b02179055505061013b805485925033917ffdbedc04cab95c25d82482b2d11163c1445eebee76f033b58f1074a50675682e9190600061255f83615a0d565b9190505585854260405161257694939291906159f2565b60405180910390a3505050565b61258b613caa565b612593613cf0565b60036000828152610135602052604090206007015460ff1660048111156125bc576125bc615275565b146125d95760405162461bcd60e51b815260040161099990615a26565b336000908152610139602090815260408083208484529091529020546126505760405162461bcd60e51b815260206004820152602660248201527f596f7520646f6e2774206f776e20616e79206672616374696f6e206f662074686044820152651a5cc81b1bdd60d21b6064820152608401610999565b60008181526101356020908152604080832081516101208101835281546001600160a01b03808216835260ff600160a01b909204821695830195909552600183015493820193909352600282015460608201526003820154608082015260048083015490941660a0820152600582015460c0820152600682015460e08201526007820154909391926101008501929116908111156126f0576126f0615275565b600481111561270157612701615275565b905250336000908152610139602090815260408083208684529091528082205490830151929350909168056bc75e2d631000009161273e91615937565b612748919061594e565b61013354336000908152610139602090815260408083208884529091528082205490860151939450909268056bc75e2d631000009261271092909161278d9190615937565b6127979190615937565b6127a1919061594e565b6127ab919061594e565b3360009081526101396020908152604080832088845290915281205583519091506001600160a01b031661285157336108fc6127e783856159df565b6040518115909202916000818181858888f1935050505015801561280f573d6000803e3d6000fd5b5061012e546040516001600160a01b039091169082156108fc029083906000818181858888f1935050505015801561284b573d6000803e3d6000fd5b5061288e565b6128713361285f83856159df565b85516001600160a01b031691906141f7565b61012e54835161288e916001600160a01b039182169116836141f7565b8251604080518481524260208201526001600160a01b039092169186917f40e6a337f1a78915df745fd02b2ca082e64e8a780a99b8fbb355f64409b399cc91015b60405180910390a350505050565b6000868660008181106128f2576128f26158f8565b90506020020135896001600160a01b0316336001600160a01b0316600080516020615e078339815191528b89896000818110612930576129306158f8565b9050602002013588884260405161294b9594939291906157b5565b60405180910390a45063f23a6e6160e01b98975050505050505050565b612970613caa565b612978613cf0565b61012d546001600160a01b03166129e06129a461169d888861299f368a90038a018a615a54565b6147a1565b84848080601f0160208091040260200160405190810160405280939291908181526020018383808284376000920191909152506142f892505050565b6001600160a01b031614612a065760405162461bcd60e51b8152600401610999906159b9565b60016000858152610135602052604090206007015460ff166004811115612a2f57612a2f615275565b14612a735760405162461bcd60e51b8152602060048201526014602482015273131bdd081dd85cdb89dd08199d5b199a5b1b195960621b6044820152606401610999565b600084815261013560205260408120600601549003612b4457600084815261013560205260409081902060048082015460059092015492516331a9108f60e11b815230936001600160a01b039390931692636352211e92612ad8920190815260200190565b602060405180830381865afa158015612af5573d6000803e3d6000fd5b505050506040513d601f19601f82011682018060405250810190612b199190615a71565b6001600160a01b031614612b3f5760405162461bcd60e51b815260040161099990615a8e565b612bf0565b600084815261013560205260409081902060068101546004808301546005909301549351627eeac760e11b815291936001600160a01b039093169262fdd58e92612b919230929101615adf565b602060405180830381865afa158015612bae573d6000803e3d6000fd5b505050506040513d601f19601f82011682018060405250810190612bd29190615af8565b1015612bf05760405162461bcd60e51b815260040161099990615b11565b6000848152610135602090815260409182902060078101805460ff19166002179055918501356001830155612c2790850185615129565b81546001600160a01b0319166001600160a01b0391909116178155612c526040850160208601615b6e565b815460ff91909116600160a01b0260ff60a01b199091161781556006810154600003612cfe57600085815261013560205260409081902060048082015461012d546005909301549351632142170760e11b81526001600160a01b03918216946342842e0e94612cc79430949091169201615b89565b600060405180830381600087803b158015612ce157600080fd5b505af1158015612cf5573d6000803e3d6000fd5b50505050612d87565b600085815261013560205260409081902060048082015461012d5460058401546006909401549451637921219560e11b81526001600160a01b039283169563f242432a95612d5495309590941693909201615bad565b600060405180830381600087803b158015612d6e57600080fd5b505af1158015612d82573d6000803e3d6000fd5b505050505b60405142815233906001600160e01b031988169087907f9ce3e88c86d51a8b260e073f34a4cb9592a479607a4a241d1e54e6cd1839d83c9060200160405180910390a4505050505050565b33612ddb610908565b6001600160a01b03161480612e005750336000908152610131602052604090205460ff165b612e1c5760405162461bcd60e51b815260040161099990615863565b612710831115612e645760405162461bcd60e51b8152602060048201526013602482015272496e76616c696420627579206c6f742066656560681b6044820152606401610999565b612710821115612ead5760405162461bcd60e51b8152602060048201526014602482015273496e76616c69642073656c6c206c6f742066656560601b6044820152606401610999565b612710811115612efb5760405162461bcd60e51b8152602060048201526019602482015278496e76616c69642073656c6c206672616374696f6e2066656560381b6044820152606401610999565b61013283905561013382905561013481905560405133907f708b641e3d0da9740c3d97eebbeaaab7f27dc6e5a39f105f2014afe6202b88eb90612f459086908690869042906159f2565b60405180910390a2505050565b612f5a613cf0565b6000818152610135602052604081206007015460ff166004811115612f8157612f81615275565b14612f9e5760405162461bcd60e51b8152600401610999906158aa565b60008181526101366020908152604080832033845290915290206001015461301e5760405162461bcd60e51b815260206004820152602d60248201527f596f7520686176656e27742070617274696369706174656420696e207468697360448201526c206c6f7420707572636861736560981b6064820152608401610999565b600081815261013660209081526040808320338452825280832080546001909101548585526101359093529083206002018054919384926130609084906159df565b909155505060008381526101356020526040812060030180548392906130879084906159df565b909155505060408051606081018252600080825260208083018281528385018381528884526101368352858420338552835285842094518555905160018501555160029093019290925585815261013790915290812054905b818110156132025760008581526101376020526040902080543391908390811061310c5761310c6158f8565b6000918252602090912001546001600160a01b0316036131fa576000858152610137602052604090206131406001846159df565b81548110613150576131506158f8565b6000918252602080832090910154878352610137909152604090912080546001600160a01b03909216918390811061318a5761318a6158f8565b600091825260208083209190910180546001600160a01b0319166001600160a01b039490941693909317909255868152610137909152604090208054806131d3576131d3615be5565b600082815260209020810160001990810180546001600160a01b0319169055019055613202565b6001016130e0565b50612710610132546127106132179190615924565b6132219085615937565b61322b919061594e565b600085815261013560205260409020549093506001600160a01b031661327e57604051339084156108fc029085906000818181858888f19350505050158015613278573d6000803e3d6000fd5b506132a2565b600084815261013560205260409020546132a2906001600160a01b031633856141f7565b83336001600160a01b03167f217fc8ac6cc86fac5bc310269fe5bca85d6ed342b78ec630b238608c4e1362848585426040516128cf93929190615113565b600084876001600160a01b0316336001600160a01b0316600080516020615e07833981519152898888884260405161331c9594939291906157b5565b60405180910390a45063f23a6e6160e01b5b9695505050505050565b613340613caa565b613348613cf0565b3360009081526101396020908152604080832084845290915290205468056bc75e2d63100000146133bb5760405162461bcd60e51b815260206004820152601e60248201527f596f7520646f6e2774206f776e2031303025206f662074686973206c6f7400006044820152606401610999565b600081815261013560205260409020600401546001600160a01b03166134365760405162461bcd60e51b815260206004820152602a60248201527f5468657265206973206e6f20746f6b656e206173736f636961746564207769746044820152691a081d1a1a5cc81b1bdd60b21b6064820152608401610999565b60008181526101356020526040812060060154900361350757600081815261013560205260409081902060048082015460059092015492516331a9108f60e11b815230936001600160a01b039390931692636352211e9261349b920190815260200190565b602060405180830381865afa1580156134b8573d6000803e3d6000fd5b505050506040513d601f19601f820116820180604052508101906134dc9190615a71565b6001600160a01b0316146135025760405162461bcd60e51b815260040161099990615a8e565b6135b3565b600081815261013560205260409081902060068101546004808301546005909301549351627eeac760e11b815291936001600160a01b039093169262fdd58e926135549230929101615adf565b602060405180830381865afa158015613571573d6000803e3d6000fd5b505050506040513d601f19601f820116820180604052508101906135959190615af8565b10156135b35760405162461bcd60e51b815260040161099990615b11565b336000818152610139602090815260408083208584529091528120546135dc9291908490613d38565b336000908152610139602090815260408083208484528252808320839055610135909152812060060154900361368e5760008181526101356020526040908190206004808201546005909201549251632142170760e11b81526001600160a01b03909216926342842e0e926136579230923392909101615b89565b600060405180830381600087803b15801561367157600080fd5b505af1158015613685573d6000803e3d6000fd5b50505050613710565b600081815261013560205260409081902060048082015460058301546006909301549351637921219560e11b81526001600160a01b039091169363f242432a936136dd93309333939101615bad565b600060405180830381600087803b1580156136f757600080fd5b505af115801561370b573d6000803e3d6000fd5b505050505b600081815261013560205260409081902060058101546004820154600690920154925190926001600160a01b039092169133917f02f809a60e7e0a6f44fdded664eb3c10eb20e82b91fb4afd7b893fe8b8d5d4b791613773918791904290615113565b60405180910390a450565b613786613f68565b6001600160a01b0381166137eb5760405162461bcd60e51b815260206004820152602660248201527f4f776e61626c653a206e6577206f776e657220697320746865207a65726f206160448201526564647265737360d01b6064820152608401610999565b610c878161424d565b61012d546001600160a01b0316336001600160a01b0316146138585760405162461bcd60e51b815260206004820181905260248201527f4f7261636c653a2063616c6c6572206973206e6f7420746865206f7261636c656044820152606401610999565b60026000828152610135602052604090206007015460ff16600481111561388157613881615275565b1461389e5760405162461bcd60e51b815260040161099990615a26565b60008181526101356020526040902080546001600160a01b031661390e57348160010154146139095760405162461bcd60e51b8152602060048201526017602482015276125b9d985b1a59081c9958d95a5d995908185b5bdd5b9d604a1b6044820152606401610999565b613933565b61012d5460018201548254613933926001600160a01b03918216929116903090614377565b60078101805460ff1916600317905560405142815282907feea15a87325fc1dc0006c807c2e0838d760795f76131c6359ba2b4141369d0e19060200160405180910390a25050565b613983613f68565b610a9761482e565b600054610100900460ff16158080156139ab5750600054600160ff909116105b806139cc57506139ba306141e8565b1580156139cc575060005460ff166001145b613a2f5760405162461bcd60e51b815260206004820152602e60248201527f496e697469616c697a61626c653a20636f6e747261637420697320616c72656160448201526d191e481a5b9a5d1a585b1a5e995960921b6064820152608401610999565b6000805460ff191660011790558015613a52576000805461ff0019166101001790555b613a5a614867565b613a62614896565b613a6a6148c5565b613a726148f4565b6001600160a01b03851615801590613a9257506001600160a01b03841615155b8015613aa657506001600160a01b03831615155b613afd5760405162461bcd60e51b815260206004820152602260248201527f496e76616c696420636f6d6d6974746565206d656d6265722061646472657373604482015261657360f01b6064820152608401610999565b836001600160a01b0316856001600160a01b031603613b2e5760405162461bcd60e51b815260040161099990615bfb565b826001600160a01b0316856001600160a01b031603613b5f5760405162461bcd60e51b815260040161099990615bfb565b826001600160a01b0316846001600160a01b031603613b905760405162461bcd60e51b815260040161099990615bfb565b6001600160a01b03858116600090815261012f60205260408082208054600160ff1991821681179092558885168452828420805482168317905587851684529190922080549091169091179055821615801590613bfc5750613bfa826001600160a01b03166141e8565b155b613c415760405162461bcd60e51b8152602060048201526016602482015275496e76616c6964206f7261636c65206164647265737360501b6044820152606401610999565b61012d80546001600160a01b0319166001600160a01b0384161790558015613ca3576000805461ff0019169055604051600181527f7f26b83ff96e1f2b6a682f133852f6798a09c465da95921460cefb38474024989060200160405180910390a15b5050505050565b60c95460ff1615610a975760405162461bcd60e51b815260206004820152601060248201526f14185d5cd8589b194e881c185d5cd95960821b6044820152606401610999565b60fb5460ff1615610a975760405162461bcd60e51b815260206004820152601260248201527114dd1bdc1c18589b194e881cdd1bdc1c195960721b6044820152606401610999565b6001600160a01b03841660009081526101396020908152604080832085845290915281208054839290613d6c9084906159df565b90915550506001600160a01b03831660009081526101396020908152604080832085845290915281208054839290613da5908490615924565b90915550506001600160a01b0384166000908152610139602090815260408083208584529091528120549003613f09576001600160a01b03841660009081526101386020526040812054905b81811015613f06576001600160a01b038616600090815261013860205260409020805485919083908110613e2757613e276158f8565b906000526020600020015403613efe576001600160a01b038616600090815261013860205260409020613e5b6001846159df565b81548110613e6b57613e6b6158f8565b90600052602060002001546101386000886001600160a01b03166001600160a01b031681526020019081526020016000208281548110613ead57613ead6158f8565b60009182526020808320909101929092556001600160a01b038816815261013890915260409020805480613ee357613ee3615be5565b60019003818190600052602060002001600090559055613f06565b600101613df1565b50505b6001600160a01b038316600090815261013960209081526040808320858452909152902054819003613f62576001600160a01b038316600090815261013860209081526040822080546001810182559083529120018290555b50505050565b33613f71610908565b6001600160a01b031614610a975760405162461bcd60e51b815260206004820181905260248201527f4f776e61626c653a2063616c6c6572206973206e6f7420746865206f776e65726044820152606401610999565b613fcf613cf0565b60fb805460ff191660011790557f55c4adf1f68f084b809304657594a92ba835ada8d3b5340955bf05746723c05b6140043390565b604051614011919061545b565b60405180910390a1565b600080516020615e47833981519152546001600160a01b031690565b610c87613f68565b7f4910fdfa16fed3260ed0e7147f7cc6da11a60208b5b9406d12a635614ffd91435460ff1615614077576140728361491b565b505050565b826001600160a01b03166352d1902d6040518163ffffffff1660e01b8152600401602060405180830381865afa9250505080156140d1575060408051601f3d908101601f191682019092526140ce91810190615af8565b60015b6141345760405162461bcd60e51b815260206004820152602e60248201527f45524331393637557067726164653a206e657720696d706c656d656e7461746960448201526d6f6e206973206e6f74205555505360901b6064820152608401610999565b600080516020615e4783398151915281146141a35760405162461bcd60e51b815260206004820152602960248201527f45524331393637557067726164653a20756e737570706f727465642070726f786044820152681a58589b195555525160ba1b6064820152608401610999565b506140728383836149b5565b6141b76149da565b60c9805460ff191690557f5db9ee0a495bf2e6ff9c91a7834c1ba4fdd244a5e8aa4e537bd38aeae4b073aa33614004565b6001600160a01b03163b151590565b6140728363a9059cbb60e01b8484604051602401614216929190615adf565b60408051601f198184030181529190526020810180516001600160e01b03166001600160e01b031990931692909217909152614a23565b609780546001600160a01b038381166001600160a01b0319831681179093556040519116919082907f8be0079c531659141344cd1fd0a4f28419497f9722a3daafe3b4186f6b6457e090600090a35050565b600083838360000151846020015185604001518660a001518760c001518860e001516040516020016142d8989796959493929190615c39565b6040516020818303038152906040528051906020012090505b9392505050565b60008060008061430785614af5565b6040805160008152602081018083528b905260ff8516918101919091526060810183905260808101829052929550909350915060019060a0016020604051602081039080840390855afa158015614362573d6000803e3d6000fd5b5050604051601f190151979650505050505050565b613f62846323b872dd60e01b85858560405160240161421693929190615b89565b80516000906060906001600160a01b03166144fe576353e6d36760e11b6001600160e01b03198616016144625760408084015190517374312363e45dcaba76c59ec49a7aa8a65a67eed391906143fb9063357a150b60e01b908890602001615d19565b60408051601f198184030181529082905261441591615d4a565b60006040518083038185875af1925050503d8060008114614452576040519150601f19603f3d011682016040523d82523d6000602084013e614457565b606091505b509092509050613ca3565b63b0afb1ad60e01b6001600160e01b03198616016144ab5760408084015190516e6c3852cbef3e08e8df289169ede58191906143fb90632ce8d31360e21b908890602001615d19565b63b3b0adbf60e01b6001600160e01b03198616016144f95760408084015190517359728544b08ab483533076417fbbb2fd0b17ce3a91906143fb90635a72594b60e11b908890602001615d19565b613ca3565b6353e6d36760e11b6001600160e01b0319861601613ca35782516040808501519051633950935160e01b81526001600160a01b039092169163395093519161455f917374312363e45dcaba76c59ec49a7aa8a65a67eed39190600401615adf565b6020604051808303816000875af115801561457e573d6000803e3d6000fd5b505050506040513d601f19601f820116820180604052508101906145a29190615d66565b506040517374312363e45dcaba76c59ec49a7aa8a65a67eed3906000906143fb9063357a150b60e01b908890602001615d19565b60008181526101376020526040812054905b8181101561407257600083815261013760205260408120805461013992919084908110614617576146176158f8565b60009182526020808320909101546001600160a01b03168352828101939093526040918201812086825290925281205490036146ae57600083815261013760205260408120805461013892919084908110614674576146746158f8565b60009182526020808320909101546001600160a01b0316835282810193909352604090910181208054600181018255908252919020018390555b60008381526101366020908152604080832061013790925282208054919291849081106146dd576146dd6158f8565b60009182526020808320909101546001600160a01b0316835282810193909352604091820181206001015486825261013790935290812080546101399291908590811061472c5761472c6158f8565b60009182526020808320909101546001600160a01b0316835282810193909352604091820181208782529092529020556001016145e8565b61476c613caa565b60c9805460ff191660011790557f62e78cea01bee320cd4e420270b5ea74000d11b0c9f74754ebdbfc544b05a2586140043390565b600083838360000151846020015185604001516040516020016142d89594939291906001600160e01b0319959095168552602d60f81b6004860181905260058601949094526025850184905260609290921b6001600160601b0319166026850152603a840183905260f81b6001600160f81b031916603b840152603c830191909152603d820152605d0190565b614836614b21565b60fb805460ff191690557f8f961b7e413f527aa58af473aee986b148b63c9c4df165cf3e758fed5818775033614004565b600054610100900460ff1661488e5760405162461bcd60e51b815260040161099990615d88565b610a97614b6c565b600054610100900460ff166148bd5760405162461bcd60e51b815260040161099990615d88565b610a97614b9c565b600054610100900460ff166148ec5760405162461bcd60e51b815260040161099990615d88565b610a97614bcf565b600054610100900460ff16610a975760405162461bcd60e51b815260040161099990615d88565b614924816141e8565b6149865760405162461bcd60e51b815260206004820152602d60248201527f455243313936373a206e657720696d706c656d656e746174696f6e206973206e60448201526c1bdd08184818dbdb9d1c9858dd609a1b6064820152608401610999565b600080516020615e4783398151915280546001600160a01b0319166001600160a01b0392909216919091179055565b6149be83614c02565b6000825111806149cb5750805b1561407257613f628383614c42565b60c95460ff16610a975760405162461bcd60e51b815260206004820152601460248201527314185d5cd8589b194e881b9bdd081c185d5cd95960621b6044820152606401610999565b6000614a78826040518060400160405280602081526020017f5361666545524332303a206c6f772d6c6576656c2063616c6c206661696c6564815250856001600160a01b0316614d349092919063ffffffff16565b8051909150156140725780806020019051810190614a969190615d66565b6140725760405162461bcd60e51b815260206004820152602a60248201527f5361666545524332303a204552433230206f7065726174696f6e20646964206e6044820152691bdd081cdd58d8d9595960b21b6064820152608401610999565b60008060008351604114614b0857600080fd5b5050506020810151604082015160419092015192909190565b60fb5460ff16610a975760405162461bcd60e51b815260206004820152601660248201527514dd1bdc1c18589b194e881b9bdd081cdd1bdc1c195960521b6044820152606401610999565b600054610100900460ff16614b935760405162461bcd60e51b815260040161099990615d88565b610a973361424d565b600054610100900460ff16614bc35760405162461bcd60e51b815260040161099990615d88565b60c9805460ff19169055565b600054610100900460ff16614bf65760405162461bcd60e51b815260040161099990615d88565b60fb805460ff19169055565b614c0b8161491b565b6040516001600160a01b038216907fbc7cd75a20ee27fd9adebab32041f755214dbc6bffa90cc0225b39da2e5c2d3b90600090a250565b6060614c4d836141e8565b614ca85760405162461bcd60e51b815260206004820152602660248201527f416464726573733a2064656c65676174652063616c6c20746f206e6f6e2d636f6044820152651b9d1c9858dd60d21b6064820152608401610999565b600080846001600160a01b031684604051614cc39190615d4a565b600060405180830381855af49150503d8060008114614cfe576040519150601f19603f3d011682016040523d82523d6000602084013e614d03565b606091505b5091509150614d2b8282604051806060016040528060278152602001615e8760279139614d4b565b95945050505050565b6060614d438484600085614d64565b949350505050565b60608315614d5a5750816142f1565b6142f18383614e93565b606082471015614dc55760405162461bcd60e51b815260206004820152602660248201527f416464726573733a20696e73756666696369656e742062616c616e636520666f6044820152651c8818d85b1b60d21b6064820152608401610999565b614dce856141e8565b614e1a5760405162461bcd60e51b815260206004820152601d60248201527f416464726573733a2063616c6c20746f206e6f6e2d636f6e74726163740000006044820152606401610999565b600080866001600160a01b03168587604051614e369190615d4a565b60006040518083038185875af1925050503d8060008114614e73576040519150601f19603f3d011682016040523d82523d6000602084013e614e78565b606091505b5091509150614e88828286614ebd565b979650505050505050565b815115614ea35781518083602001fd5b8060405162461bcd60e51b81526004016109999190615dd3565b60608315614ecc5750816142f1565b825115614edc5782518084602001fd5b8160405162461bcd60e51b81526004016109999190615dd3565b828054828255906000526020600020908101928215614f4b579160200282015b82811115614f4b57825182546001600160a01b0319166001600160a01b03909116178255602090920191600190910190614f16565b50614f57929150614f5b565b5090565b5b80821115614f575760008155600101614f5c565b80356001600160e01b031981168114614f8857600080fd5b919050565b600060208284031215614f9f57600080fd5b6142f182614f70565b6001600160a01b0381168114610c8757600080fd5b8035614f8881614fa8565b600080600060608486031215614fdd57600080fd5b8335614fe881614fa8565b95602085013595506040909401359392505050565b6000806040838503121561501057600080fd5b823561501b81614fa8565b946020939093013593505050565b60008083601f84011261503b57600080fd5b5081356001600160401b0381111561505257600080fd5b60208301915083602082850101111561506a57600080fd5b9250929050565b60008060008060006080868803121561508957600080fd5b853561509481614fa8565b945060208601356150a481614fa8565b93506040860135925060608601356001600160401b038111156150c657600080fd5b6150d288828901615029565b969995985093965092949392505050565b600080604083850312156150f657600080fd5b82359150602083013561510881614fa8565b809150509250929050565b9283526020830191909152604082015260600190565b60006020828403121561513b57600080fd5b81356142f181614fa8565b634e487b7160e01b600052604160045260246000fd5b60405161012081016001600160401b038111828210171561517f5761517f615146565b60405290565b604051601f8201601f191681016001600160401b03811182821017156151ad576151ad615146565b604052919050565b600080604083850312156151c857600080fd5b82356151d381614fa8565b91506020838101356001600160401b03808211156151f057600080fd5b818601915086601f83011261520457600080fd5b81358181111561521657615216615146565b615228601f8201601f19168501615185565b9150808252878482850101111561523e57600080fd5b80848401858401376000848284010152508093505050509250929050565b60006020828403121561526e57600080fd5b5035919050565b634e487b7160e01b600052602160045260246000fd5b600581106152a957634e487b7160e01b600052602160045260246000fd5b9052565b8581526001600160a01b0385166020820152604081018490526060810183905260a0810161332e608083018461528b565b803560ff81168114614f8857600080fd5b803560058110614f8857600080fd5b6000610120828403121561531157600080fd5b61531961515c565b905061532482614fbd565b8152615332602083016152de565b602082015260408201356040820152606082013560608201526080820135608082015261536160a08301614fbd565b60a082015260c082013560c082015260e082013560e08201526101006153888184016152ef565b9082015292915050565b6000806000806000806000806101c0898b0312156153af57600080fd5b6153b889614f70565b975060208901359650604089013595506153d58a60608b016152fe565b94506101808901356001600160401b03808211156153f257600080fd5b6153fe8c838d01615029565b90965094506101a08b013591508082111561541857600080fd5b506154258b828c01615029565b999c989b5096995094979396929594505050565b6000806040838503121561544c57600080fd5b50508035926020909101359150565b6001600160a01b0391909116815260200190565b60008060006060848603121561548457600080fd5b505081359360208301359350604090920135919050565b60008083601f8401126154ad57600080fd5b5081356001600160401b038111156154c457600080fd5b6020830191508360208260051b850101111561506a57600080fd5b60008060008060008060008060a0898b0312156154fb57600080fd5b883561550681614fa8565b9750602089013561551681614fa8565b965060408901356001600160401b038082111561553257600080fd5b61553e8c838d0161549b565b909850965060608b013591508082111561555757600080fd5b6155638c838d0161549b565b909650945060808b013591508082111561541857600080fd5b600080600080600085870361018081121561559657600080fd5b61559f87614f70565b955060208701359450610120603f19820112156155bb57600080fd5b506040860192506101608601356001600160401b038111156150c657600080fd5b6001600160a01b038a8116825260ff8a166020830152604082018990526060820188905260808201879052851660a082015260c0810184905260e08101839052610120810161562f61010083018461528b565b9a9950505050505050505050565b60008060008060008060a0878903121561565657600080fd5b863561566181614fa8565b9550602087013561567181614fa8565b9450604087013593506060870135925060808701356001600160401b0381111561569a57600080fd5b6156a689828a01615029565b979a9699509497509295939492505050565b600080600080608085870312156156ce57600080fd5b84356156d981614fa8565b935060208501356156e981614fa8565b925060408501356156f981614fa8565b9150606085013561570981614fa8565b939692955090935050565b602080825260179082015276125b9d985b1a5908199c9858dd1a5bdb88185b5bdd5b9d604a1b604082015260600190565b60208082526027908201527f596f752068617665206e6f20656e6f756768206672616374696f6e206f6620746040820152661a1a5cc81b1bdd60ca1b606082015260800190565b81835281816020850137506000828201602090810191909152601f909101601f19169091010190565b60018060a01b03861681528460208201526080604082015260006157dd60808301858761578c565b90508260608301529695505050505050565b6020808252602c90820152600080516020615e2783398151915260408201526b19195b1959d85d1958d85b1b60a21b606082015260800190565b6020808252602c90820152600080516020615e2783398151915260408201526b6163746976652070726f787960a01b606082015260800190565b60208082526027908201527f41646d696e697374726174696f6e3a2063616c6c6572206973206e6f74207468604082015266329030b236b4b760c91b606082015260800190565b6020808252602e908201527f4c6f7420646f65736e27742065786973742c20616c72656164792066756c666960408201526d1b1b1959081bdc8818db1bdcd95960921b606082015260800190565b634e487b7160e01b600052603260045260246000fd5b634e487b7160e01b600052601160045260246000fd5b808201808211156109635761096361590e565b80820281158282048414176109635761096361590e565b60008261596b57634e487b7160e01b600052601260045260246000fd5b500490565b60208082526029908201527f54686973206c6f7420697320616c72656164792066756c66696c6c6564206f726040820152680818d85b98d95b195960ba1b606082015260800190565b6020808252600c908201526b24b73b30b634b21039b4b3b760a11b604082015260600190565b818103818111156109635761096361590e565b93845260208401929092526040830152606082015260800190565b600060018201615a1f57615a1f61590e565b5060010190565b602080825260149082015273496e636f7272656374206c6f742073746174757360601b604082015260600190565b60006101208284031215615a6757600080fd5b6142f183836152fe565b600060208284031215615a8357600080fd5b81516142f181614fa8565b60208082526031908201527f526571756573746564204552432d37323120746f6b656e2069736e2774206f6e60408201527020636f6e74726163742062616c616e636560781b606082015260800190565b6001600160a01b03929092168252602082015260400190565b600060208284031215615b0a57600080fd5b5051919050565b6020808252603d908201527f52657175657374656420616d6f756e74206f66204552432d3131353520746f6b60408201527f656e732069736e2774206f6e20636f6e74726163742062616c616e6365000000606082015260800190565b600060208284031215615b8057600080fd5b6142f1826152de565b6001600160a01b039384168152919092166020820152604081019190915260600190565b6001600160a01b0394851681529290931660208301526040820152606081019190915260a06080820181905260009082015260c00190565b634e487b7160e01b600052603160045260246000fd5b60208082526017908201527653657420646966666572656e742061646472657373657360481b604082015260600190565b602d60f81b815260010190565b6001600160e01b031989168152602d60f81b600482018190526005820189905260258201819052606088901b6001600160601b0319166026830152603a82015260f886901b6001600160f81b031916603b8201526000615c9b603c8301615c2c565b868152615caa60208201615c2c565b9050615cc2818760601b6001600160601b0319169052565b615cce60148201615c2c565b9050848152615cdf60208201615c2c565b9384525050602090910198975050505050505050565b60005b83811015615d10578181015183820152602001615cf8565b50506000910152565b6001600160e01b0319831681528151600090615d3c816004850160208701615cf5565b919091016004019392505050565b60008251615d5c818460208701615cf5565b9190910192915050565b600060208284031215615d7857600080fd5b815180151581146142f157600080fd5b6020808252602b908201527f496e697469616c697a61626c653a20636f6e7472616374206973206e6f74206960408201526a6e697469616c697a696e6760a81b606082015260800190565b6020815260008251806020840152615df2816040850160208701615cf5565b601f01601f1916919091016040019291505056fe5b239fc4a39d468887d7653242bedeb27ca3880493ffb447a9756368238d48fc46756e6374696f6e206d7573742062652063616c6c6564207468726f75676820360894a13ba1a3210667c828492db98dca3e2076cc3735a920a3ca505d382bbc41646d696e3a2074686973206164647265737320697320616c72656164792061416464726573733a206c6f772d6c6576656c2064656c65676174652063616c6c206661696c656441646d696e697374726174696f6e3a2074686973206164647265737320697320a26469706673582212204d39713ca0f98902e9a9f700a465b94bc14ff7c463ea1ec90f3749d51ea7194264736f6c63430008110033",
  "linkReferences": {},
  "deployedLinkReferences": {}
}