{
    "_format": "hh-sol-artifact-1",
    "contractName": "NFTCollectivePurchase",
    "sourceName": "contracts/NFTCollectivePurchase.sol",
    "abi": [
        {
            "inputs": [
                {
                    "internalType": "address",
                    "name": "oracleAddress",
                    "type": "address"
                }
            ],
            "stateMutability": "nonpayable",
            "type": "constructor"
        },
        {
            "anonymous": false,
            "inputs": [
                {
                    "indexed": true,
                    "internalType": "address",
                    "name": "previousOwner",
                    "type": "address"
                },
                {
                    "indexed": true,
                    "internalType": "address",
                    "name": "newOwner",
                    "type": "address"
                }
            ],
            "name": "OwnershipTransferred",
            "type": "event"
        },
        {
            "inputs": [],
            "name": "ORACLE_ADDRESS",
            "outputs": [
                {
                    "internalType": "address",
                    "name": "",
                    "type": "address"
                }
            ],
            "stateMutability": "view",
            "type": "function"
        },
        {
            "inputs": [
                {
                    "internalType": "uint256",
                    "name": "fractionLotId",
                    "type": "uint256"
                }
            ],
            "name": "buyFraction",
            "outputs": [],
            "stateMutability": "payable",
            "type": "function"
        },
        {
            "inputs": [
                {
                    "internalType": "bytes4",
                    "name": "marketplaceId",
                    "type": "bytes4"
                },
                {
                    "internalType": "uint256",
                    "name": "lotId",
                    "type": "uint256"
                },
                {
                    "internalType": "uint256",
                    "name": "amount",
                    "type": "uint256"
                },
                {
                    "components": [
                        {
                            "internalType": "address",
                            "name": "tokenAddress",
                            "type": "address"
                        },
                        {
                            "internalType": "uint8",
                            "name": "decimals",
                            "type": "uint8"
                        },
                        {
                            "internalType": "uint256",
                            "name": "price",
                            "type": "uint256"
                        },
                        {
                            "internalType": "uint256",
                            "name": "collected",
                            "type": "uint256"
                        },
                        {
                            "internalType": "uint256",
                            "name": "occupancy",
                            "type": "uint256"
                        },
                        {
                            "internalType": "address",
                            "name": "tokenContractAddress",
                            "type": "address"
                        },
                        {
                            "internalType": "uint256",
                            "name": "tokenId",
                            "type": "uint256"
                        },
                        {
                            "internalType": "uint256",
                            "name": "tokenAmount",
                            "type": "uint256"
                        },
                        {
                            "internalType": "enum Models.LotStatus",
                            "name": "status",
                            "type": "uint8"
                        }
                    ],
                    "internalType": "struct Models.Lot",
                    "name": "lotData",
                    "type": "tuple"
                },
                {
                    "internalType": "bytes",
                    "name": "inputData",
                    "type": "bytes"
                },
                {
                    "internalType": "bytes",
                    "name": "signature",
                    "type": "bytes"
                }
            ],
            "name": "buyLot",
            "outputs": [],
            "stateMutability": "payable",
            "type": "function"
        },
        {
            "inputs": [
                {
                    "internalType": "uint256",
                    "name": "fractionLotId",
                    "type": "uint256"
                }
            ],
            "name": "cancelSellFraction",
            "outputs": [],
            "stateMutability": "nonpayable",
            "type": "function"
        },
        {
            "inputs": [
                {
                    "internalType": "address",
                    "name": "newOracleAddress",
                    "type": "address"
                }
            ],
            "name": "changeOracle",
            "outputs": [],
            "stateMutability": "nonpayable",
            "type": "function"
        },
        {
            "inputs": [
                {
                    "internalType": "uint256",
                    "name": "lotId",
                    "type": "uint256"
                }
            ],
            "name": "claimLot",
            "outputs": [],
            "stateMutability": "nonpayable",
            "type": "function"
        },
        {
            "inputs": [
                {
                    "internalType": "uint256",
                    "name": "lotId",
                    "type": "uint256"
                }
            ],
            "name": "closeLot",
            "outputs": [],
            "stateMutability": "nonpayable",
            "type": "function"
        },
        {
            "inputs": [
                {
                    "internalType": "uint256",
                    "name": "lotId",
                    "type": "uint256"
                }
            ],
            "name": "declineBid",
            "outputs": [],
            "stateMutability": "nonpayable",
            "type": "function"
        },
        {
            "inputs": [],
            "name": "fractionLotsNumber",
            "outputs": [
                {
                    "internalType": "uint256",
                    "name": "",
                    "type": "uint256"
                }
            ],
            "stateMutability": "view",
            "type": "function"
        },
        {
            "inputs": [
                {
                    "internalType": "address",
                    "name": "",
                    "type": "address"
                },
                {
                    "internalType": "uint256",
                    "name": "",
                    "type": "uint256"
                }
            ],
            "name": "fractions",
            "outputs": [
                {
                    "internalType": "uint256",
                    "name": "",
                    "type": "uint256"
                }
            ],
            "stateMutability": "view",
            "type": "function"
        },
        {
            "inputs": [
                {
                    "internalType": "uint256",
                    "name": "",
                    "type": "uint256"
                }
            ],
            "name": "fractionsMarket",
            "outputs": [
                {
                    "internalType": "uint256",
                    "name": "lotId",
                    "type": "uint256"
                },
                {
                    "internalType": "address",
                    "name": "seller",
                    "type": "address"
                },
                {
                    "internalType": "uint256",
                    "name": "fraction",
                    "type": "uint256"
                },
                {
                    "internalType": "uint256",
                    "name": "price",
                    "type": "uint256"
                },
                {
                    "internalType": "enum Models.LotStatus",
                    "name": "status",
                    "type": "uint8"
                }
            ],
            "stateMutability": "view",
            "type": "function"
        },
        {
            "inputs": [
                {
                    "internalType": "uint256",
                    "name": "",
                    "type": "uint256"
                },
                {
                    "internalType": "address",
                    "name": "",
                    "type": "address"
                }
            ],
            "name": "lotBids",
            "outputs": [
                {
                    "internalType": "uint256",
                    "name": "amount",
                    "type": "uint256"
                },
                {
                    "internalType": "uint256",
                    "name": "fraction",
                    "type": "uint256"
                },
                {
                    "internalType": "uint256",
                    "name": "time",
                    "type": "uint256"
                }
            ],
            "stateMutability": "view",
            "type": "function"
        },
        {
            "inputs": [
                {
                    "internalType": "uint256",
                    "name": "",
                    "type": "uint256"
                },
                {
                    "internalType": "uint256",
                    "name": "",
                    "type": "uint256"
                }
            ],
            "name": "lotParticipants",
            "outputs": [
                {
                    "internalType": "address",
                    "name": "",
                    "type": "address"
                }
            ],
            "stateMutability": "view",
            "type": "function"
        },
        {
            "inputs": [
                {
                    "internalType": "uint256",
                    "name": "",
                    "type": "uint256"
                }
            ],
            "name": "lots",
            "outputs": [
                {
                    "internalType": "address",
                    "name": "tokenAddress",
                    "type": "address"
                },
                {
                    "internalType": "uint8",
                    "name": "decimals",
                    "type": "uint8"
                },
                {
                    "internalType": "uint256",
                    "name": "price",
                    "type": "uint256"
                },
                {
                    "internalType": "uint256",
                    "name": "collected",
                    "type": "uint256"
                },
                {
                    "internalType": "uint256",
                    "name": "occupancy",
                    "type": "uint256"
                },
                {
                    "internalType": "address",
                    "name": "tokenContractAddress",
                    "type": "address"
                },
                {
                    "internalType": "uint256",
                    "name": "tokenId",
                    "type": "uint256"
                },
                {
                    "internalType": "uint256",
                    "name": "tokenAmount",
                    "type": "uint256"
                },
                {
                    "internalType": "enum Models.LotStatus",
                    "name": "status",
                    "type": "uint8"
                }
            ],
            "stateMutability": "view",
            "type": "function"
        },
        {
            "inputs": [
                {
                    "internalType": "address",
                    "name": "operator",
                    "type": "address"
                },
                {
                    "internalType": "address",
                    "name": "from",
                    "type": "address"
                },
                {
                    "internalType": "uint256[]",
                    "name": "ids",
                    "type": "uint256[]"
                },
                {
                    "internalType": "uint256[]",
                    "name": "values",
                    "type": "uint256[]"
                },
                {
                    "internalType": "bytes",
                    "name": "data",
                    "type": "bytes"
                }
            ],
            "name": "onERC1155BatchReceived",
            "outputs": [
                {
                    "internalType": "bytes4",
                    "name": "",
                    "type": "bytes4"
                }
            ],
            "stateMutability": "nonpayable",
            "type": "function"
        },
        {
            "inputs": [
                {
                    "internalType": "address",
                    "name": "operator",
                    "type": "address"
                },
                {
                    "internalType": "address",
                    "name": "from",
                    "type": "address"
                },
                {
                    "internalType": "uint256",
                    "name": "id",
                    "type": "uint256"
                },
                {
                    "internalType": "uint256",
                    "name": "value",
                    "type": "uint256"
                },
                {
                    "internalType": "bytes",
                    "name": "data",
                    "type": "bytes"
                }
            ],
            "name": "onERC1155Received",
            "outputs": [
                {
                    "internalType": "bytes4",
                    "name": "",
                    "type": "bytes4"
                }
            ],
            "stateMutability": "nonpayable",
            "type": "function"
        },
        {
            "inputs": [
                {
                    "internalType": "address",
                    "name": "operator",
                    "type": "address"
                },
                {
                    "internalType": "address",
                    "name": "from",
                    "type": "address"
                },
                {
                    "internalType": "uint256",
                    "name": "tokenId",
                    "type": "uint256"
                },
                {
                    "internalType": "bytes",
                    "name": "data",
                    "type": "bytes"
                }
            ],
            "name": "onERC721Received",
            "outputs": [
                {
                    "internalType": "bytes4",
                    "name": "",
                    "type": "bytes4"
                }
            ],
            "stateMutability": "nonpayable",
            "type": "function"
        },
        {
            "inputs": [],
            "name": "owner",
            "outputs": [
                {
                    "internalType": "address",
                    "name": "",
                    "type": "address"
                }
            ],
            "stateMutability": "view",
            "type": "function"
        },
        {
            "inputs": [],
            "name": "renounceOwnership",
            "outputs": [],
            "stateMutability": "nonpayable",
            "type": "function"
        },
        {
            "inputs": [
                {
                    "internalType": "uint256",
                    "name": "amount",
                    "type": "uint256"
                }
            ],
            "name": "retrieve",
            "outputs": [],
            "stateMutability": "nonpayable",
            "type": "function"
        },
        {
            "inputs": [
                {
                    "internalType": "address",
                    "name": "tokenAddress",
                    "type": "address"
                },
                {
                    "internalType": "uint256",
                    "name": "tokenID",
                    "type": "uint256"
                },
                {
                    "internalType": "uint256",
                    "name": "amount",
                    "type": "uint256"
                }
            ],
            "name": "retrieveERC1155",
            "outputs": [],
            "stateMutability": "nonpayable",
            "type": "function"
        },
        {
            "inputs": [
                {
                    "internalType": "address",
                    "name": "tokenAddress",
                    "type": "address"
                },
                {
                    "internalType": "uint256",
                    "name": "amount",
                    "type": "uint256"
                }
            ],
            "name": "retrieveERC20",
            "outputs": [],
            "stateMutability": "nonpayable",
            "type": "function"
        },
        {
            "inputs": [
                {
                    "internalType": "address",
                    "name": "tokenAddress",
                    "type": "address"
                },
                {
                    "internalType": "uint256",
                    "name": "tokenID",
                    "type": "uint256"
                }
            ],
            "name": "retrieveERC721",
            "outputs": [],
            "stateMutability": "nonpayable",
            "type": "function"
        },
        {
            "inputs": [
                {
                    "internalType": "uint256",
                    "name": "lotId",
                    "type": "uint256"
                },
                {
                    "internalType": "uint256",
                    "name": "amount",
                    "type": "uint256"
                },
                {
                    "internalType": "uint256",
                    "name": "price",
                    "type": "uint256"
                }
            ],
            "name": "sellFraction",
            "outputs": [],
            "stateMutability": "nonpayable",
            "type": "function"
        },
        {
            "inputs": [],
            "name": "sellLot",
            "outputs": [],
            "stateMutability": "nonpayable",
            "type": "function"
        },
        {
            "inputs": [
                {
                    "internalType": "bytes4",
                    "name": "interfaceId",
                    "type": "bytes4"
                }
            ],
            "name": "supportsInterface",
            "outputs": [
                {
                    "internalType": "bool",
                    "name": "",
                    "type": "bool"
                }
            ],
            "stateMutability": "pure",
            "type": "function"
        },
        {
            "inputs": [
                {
                    "internalType": "address",
                    "name": "receiver",
                    "type": "address"
                },
                {
                    "internalType": "uint256",
                    "name": "lotId",
                    "type": "uint256"
                },
                {
                    "internalType": "uint256",
                    "name": "amount",
                    "type": "uint256"
                }
            ],
            "name": "transferFraction",
            "outputs": [],
            "stateMutability": "nonpayable",
            "type": "function"
        },
        {
            "inputs": [
                {
                    "internalType": "address",
                    "name": "newOwner",
                    "type": "address"
                }
            ],
            "name": "transferOwnership",
            "outputs": [],
            "stateMutability": "nonpayable",
            "type": "function"
        },
        {
            "inputs": [
                {
                    "internalType": "address",
                    "name": "",
                    "type": "address"
                },
                {
                    "internalType": "uint256",
                    "name": "",
                    "type": "uint256"
                }
            ],
            "name": "userLots",
            "outputs": [
                {
                    "internalType": "uint256",
                    "name": "",
                    "type": "uint256"
                }
            ],
            "stateMutability": "view",
            "type": "function"
        },
        {
            "inputs": [
                {
                    "internalType": "address",
                    "name": "",
                    "type": "address"
                }
            ],
            "name": "users",
            "outputs": [
                {
                    "internalType": "address",
                    "name": "addr",
                    "type": "address"
                }
            ],
            "stateMutability": "view",
            "type": "function"
        },
        {
            "stateMutability": "payable",
            "type": "receive"
        }
    ],
    "bytecode": "0x60806040523480156200001157600080fd5b5060405162006f4738038062006f478339818101604052810190620000379190620002a1565b620000576200004b6200014860201b60201c565b6200015060201b60201c565b600073ffffffffffffffffffffffffffffffffffffffff168173ffffffffffffffffffffffffffffffffffffffff1614158015620000be5750620000bc8173ffffffffffffffffffffffffffffffffffffffff166200021460201b620036ef1760201c565b155b62000100576040517f08c379a0000000000000000000000000000000000000000000000000000000008152600401620000f79062000334565b60405180910390fd5b80600960006101000a81548173ffffffffffffffffffffffffffffffffffffffff021916908373ffffffffffffffffffffffffffffffffffffffff1602179055505062000356565b600033905090565b60008060009054906101000a900473ffffffffffffffffffffffffffffffffffffffff169050816000806101000a81548173ffffffffffffffffffffffffffffffffffffffff021916908373ffffffffffffffffffffffffffffffffffffffff1602179055508173ffffffffffffffffffffffffffffffffffffffff168173ffffffffffffffffffffffffffffffffffffffff167f8be0079c531659141344cd1fd0a4f28419497f9722a3daafe3b4186f6b6457e060405160405180910390a35050565b6000808273ffffffffffffffffffffffffffffffffffffffff163b119050919050565b600080fd5b600073ffffffffffffffffffffffffffffffffffffffff82169050919050565b600062000269826200023c565b9050919050565b6200027b816200025c565b81146200028757600080fd5b50565b6000815190506200029b8162000270565b92915050565b600060208284031215620002ba57620002b962000237565b5b6000620002ca848285016200028a565b91505092915050565b600082825260208201905092915050565b7f496e76616c6964206f7261636c65206164647265737300000000000000000000600082015250565b60006200031c601683620002d3565b91506200032982620002e4565b602082019050919050565b600060208201905081810360008301526200034f816200030d565b9050919050565b616be180620003666000396000f3fe6080604052600436106101d15760003560e01c80638e1a3b6e116100f7578063cf7c73dc11610095578063f23a6e6111610064578063f23a6e61146106f0578063f2da06641461072d578063f2fde38b14610756578063fcfc430c1461077f57610225565b8063cf7c73dc14610630578063e4f77dab14610659578063e72575f914610682578063f1648e84146106ab57610225565b8063a87430ba116100d1578063a87430ba14610576578063ab553411146105b3578063bc197c81146105dc578063cae98aae1461061957610225565b80638e1a3b6e146105065780638f88708b146105225780639cca2f6c1461054b57610225565b806347c421b51161016f578063715018a61161013e578063715018a61461046b5780638455ff9e1461048257806386a4b0f11461049e5780638da5cb5b146104db57610225565b806347c421b51461039b57806359ae5007146103c457806361bbf9551461040157806366adb83a1461042a57610225565b8063150b7a02116101ab578063150b7a02146102cd578063157bc7ad1461030a57806317fd1e2f146103495780631e38af411461037257610225565b806301ffc9a71461022a57806306625e8a146102675780630ee4b0621461029057610225565b36610225576101de6107aa565b73ffffffffffffffffffffffffffffffffffffffff166108fc349081150290604051600060405180830381858888f19350505050158015610223573d6000803e3d6000fd5b005b600080fd5b34801561023657600080fd5b50610251600480360381019061024c9190614961565b6107d3565b60405161025e91906149a9565b60405180910390f35b34801561027357600080fd5b5061028e60048036038101906102899190614a58565b61090d565b005b34801561029c57600080fd5b506102b760048036038101906102b29190614aab565b610acb565b6040516102c49190614afa565b60405180910390f35b3480156102d957600080fd5b506102f460048036038101906102ef9190614b7a565b610af0565b6040516103019190614c11565b60405180910390f35b34801561031657600080fd5b50610331600480360381019061032c9190614c2c565b610b74565b60405161034093929190614c6c565b60405180910390f35b34801561035557600080fd5b50610370600480360381019061036b9190614aab565b610bab565b005b34801561037e57600080fd5b5061039960048036038101906103949190614aab565b610c6e565b005b3480156103a757600080fd5b506103c260048036038101906103bd9190614ca3565b610cf0565b005b3480156103d057600080fd5b506103eb60048036038101906103e69190614aab565b610eeb565b6040516103f89190614afa565b60405180910390f35b34801561040d57600080fd5b5061042860048036038101906104239190614cd0565b610f1c565b005b34801561043657600080fd5b50610451600480360381019061044c9190614cd0565b6110f3565b604051610462959493929190614d83565b60405180910390f35b34801561047757600080fd5b50610480611156565b005b61049c60048036038101906104979190614fa5565b61116a565b005b3480156104aa57600080fd5b506104c560048036038101906104c09190615077565b611f1f565b6040516104d291906150b7565b60405180910390f35b3480156104e757600080fd5b506104f06107aa565b6040516104fd91906150b7565b60405180910390f35b610520600480360381019061051b9190614cd0565b611f6d565b005b34801561052e57600080fd5b5061054960048036038101906105449190614cd0565b6122d3565b005b34801561055757600080fd5b50610560612338565b60405161056d9190614afa565b60405180910390f35b34801561058257600080fd5b5061059d60048036038101906105989190614ca3565b61233e565b6040516105aa91906150b7565b60405180910390f35b3480156105bf57600080fd5b506105da60048036038101906105d591906150d2565b61237c565b005b3480156105e857600080fd5b5061060360048036038101906105fe919061517b565b612602565b6040516106109190614c11565b60405180910390f35b34801561062557600080fd5b5061062e6126bc565b005b34801561063c57600080fd5b5061065760048036038101906106529190614a58565b612755565b005b34801561066557600080fd5b50610680600480360381019061067b9190614cd0565b6127da565b005b34801561068e57600080fd5b506106a960048036038101906106a49190614cd0565b612e2d565b005b3480156106b757600080fd5b506106d260048036038101906106cd9190614cd0565b612e30565b6040516106e799989796959493929190615266565b60405180910390f35b3480156106fc57600080fd5b50610717600480360381019061071291906152f3565b612ed8565b6040516107249190614c11565b60405180910390f35b34801561073957600080fd5b50610754600480360381019061074f9190614cd0565b612f5c565b005b34801561076257600080fd5b5061077d60048036038101906107789190614ca3565b613646565b005b34801561078b57600080fd5b506107946136c9565b6040516107a191906150b7565b60405180910390f35b60008060009054906101000a900473ffffffffffffffffffffffffffffffffffffffff16905090565b60007f01ffc9a7000000000000000000000000000000000000000000000000000000007bffffffffffffffffffffffffffffffffffffffffffffffffffffffff1916827bffffffffffffffffffffffffffffffffffffffffffffffffffffffff1916148061089e57507f150b7a02000000000000000000000000000000000000000000000000000000007bffffffffffffffffffffffffffffffffffffffffffffffffffffffff1916827bffffffffffffffffffffffffffffffffffffffffffffffffffffffff1916145b8061090657507f4e2312e0000000000000000000000000000000000000000000000000000000007bffffffffffffffffffffffffffffffffffffffffffffffffffffffff1916827bffffffffffffffffffffffffffffffffffffffffffffffffffffffff1916145b9050919050565b60008111610950576040517f08c379a0000000000000000000000000000000000000000000000000000000008152600401610947906153ea565b60405180910390fd5b80600560003373ffffffffffffffffffffffffffffffffffffffff1673ffffffffffffffffffffffffffffffffffffffff16815260200190815260200160002060008481526020019081526020016000205410156109e3576040517f08c379a00000000000000000000000000000000000000000000000000000000081526004016109da90615456565b60405180910390fd5b600073ffffffffffffffffffffffffffffffffffffffff168373ffffffffffffffffffffffffffffffffffffffff1603610a52576040517f08c379a0000000000000000000000000000000000000000000000000000000008152600401610a49906154c2565b60405180910390fd5b610a5e33848484613712565b818373ffffffffffffffffffffffffffffffffffffffff163373ffffffffffffffffffffffffffffffffffffffff167fa5e8f4e070f193b8948b33a4973155913a85b93f761a3124ea9d7cb14e54bcb78442604051610abe9291906154e2565b60405180910390a4505050565b6005602052816000526040600020602052806000526040600020600091509150505481565b6000838673ffffffffffffffffffffffffffffffffffffffff163373ffffffffffffffffffffffffffffffffffffffff167f5b239fc4a39d468887d7653242bedeb27ca3880493ffb447a9756368238d48fc886000888842604051610b5995949392919061559d565b60405180910390a463150b7a0260e01b905095945050505050565b6002602052816000526040600020602052806000526040600020600091509150508060000154908060010154908060020154905083565b610bb3613b91565b60008103610c38578173ffffffffffffffffffffffffffffffffffffffff166370a08231306040518263ffffffff1660e01b8152600401610bf491906150b7565b602060405180830381865afa158015610c11573d6000803e3d6000fd5b505050506040513d601f19601f82011682018060405250810190610c359190615600565b90505b610c6a610c436107aa565b828473ffffffffffffffffffffffffffffffffffffffff16613c0f9092919063ffffffff16565b5050565b610c76613b91565b8173ffffffffffffffffffffffffffffffffffffffff166342842e0e30610c9b6107aa565b846040518463ffffffff1660e01b8152600401610cba9392919061562d565b600060405180830381600087803b158015610cd457600080fd5b505af1158015610ce8573d6000803e3d6000fd5b505050505050565b610cf8613b91565b600073ffffffffffffffffffffffffffffffffffffffff168173ffffffffffffffffffffffffffffffffffffffff1614158015610d515750610d4f8173ffffffffffffffffffffffffffffffffffffffff166136ef565b155b610d90576040517f08c379a0000000000000000000000000000000000000000000000000000000008152600401610d87906156b0565b60405180910390fd5b600960009054906101000a900473ffffffffffffffffffffffffffffffffffffffff1673ffffffffffffffffffffffffffffffffffffffff168173ffffffffffffffffffffffffffffffffffffffff1603610e20576040517f08c379a0000000000000000000000000000000000000000000000000000000008152600401610e179061571c565b60405180910390fd5b8073ffffffffffffffffffffffffffffffffffffffff16600960009054906101000a900473ffffffffffffffffffffffffffffffffffffffff1673ffffffffffffffffffffffffffffffffffffffff167f08be022e0f3d9204080fc56bec563e9e4bc1043d08f9f8c84dadcdc67f6abc8042604051610e9f9190614afa565b60405180910390a380600960006101000a81548173ffffffffffffffffffffffffffffffffffffffff021916908373ffffffffffffffffffffffffffffffffffffffff16021790555050565b60046020528160005260406000208181548110610f0757600080fd5b90600052602060002001600091509150505481565b60006002811115610f3057610f2f614d0c565b5b6006600083815260200190815260200160002060040160009054906101000a900460ff166002811115610f6657610f65614d0c565b5b14610fa6576040517f08c379a0000000000000000000000000000000000000000000000000000000008152600401610f9d90615788565b60405180910390fd5b3373ffffffffffffffffffffffffffffffffffffffff166006600083815260200190815260200160002060010160009054906101000a900473ffffffffffffffffffffffffffffffffffffffff1673ffffffffffffffffffffffffffffffffffffffff161461104a576040517f08c379a0000000000000000000000000000000000000000000000000000000008152600401611041906157f4565b60405180910390fd5b60026006600083815260200190815260200160002060040160006101000a81548160ff0219169083600281111561108457611083614d0c565b5b021790555060066000828152602001908152602001600020600001543373ffffffffffffffffffffffffffffffffffffffff167fae72462ce3b0fb699ec5e7c6063f726ff949c9f1cd073aa1d2b4aaf5edf6142683426040516110e89291906154e2565b60405180910390a350565b60066020528060005260406000206000915090508060000154908060010160009054906101000a900473ffffffffffffffffffffffffffffffffffffffff16908060020154908060030154908060040160009054906101000a900460ff16905085565b61115e613b91565b6111686000613c95565b565b60008560400151116111b1576040517f08c379a00000000000000000000000000000000000000000000000000000000081526004016111a890615860565b60405180910390fd5b600086116111f4576040517f08c379a00000000000000000000000000000000000000000000000000000000081526004016111eb906158cc565b60405180910390fd5b348614806112325750600073ffffffffffffffffffffffffffffffffffffffff16856000015173ffffffffffffffffffffffffffffffffffffffff16145b611271576040517f08c379a000000000000000000000000000000000000000000000000000000000815260040161126890615938565b60405180910390fd5b60006002600089815260200190815260200160002060003373ffffffffffffffffffffffffffffffffffffffff1673ffffffffffffffffffffffffffffffffffffffff1681526020019081526020016000206001015414611307576040517f08c379a00000000000000000000000000000000000000000000000000000000081526004016112fe906159a4565b60405180910390fd5b600080600281111561131c5761131b614d0c565b5b600160008a815260200190815260200160002060070160009054906101000a900460ff16600281111561135257611351614d0c565b5b14801561137557506000600160008a815260200190815260200160002060030154145b1561166a57600960009054906101000a900473ffffffffffffffffffffffffffffffffffffffff1673ffffffffffffffffffffffffffffffffffffffff166114136113c96113c48c8c8b613d59565b613db1565b85858080601f016020809104026020016040519081016040528093929190818152602001838380828437600081840152601f19601f82011690508083019250505050505050613de1565b73ffffffffffffffffffffffffffffffffffffffff1614611469576040517f08c379a000000000000000000000000000000000000000000000000000000000815260040161146090615a10565b60405180910390fd5b604051806101200160405280876000015173ffffffffffffffffffffffffffffffffffffffff168152602001876020015160ff1681526020018760400151815260200160008152602001600081526020018760a0015173ffffffffffffffffffffffffffffffffffffffff1681526020018760c0015181526020018760e0015181526020016000600281111561150257611501614d0c565b5b815250600160008a815260200190815260200160002060008201518160000160006101000a81548173ffffffffffffffffffffffffffffffffffffffff021916908373ffffffffffffffffffffffffffffffffffffffff16021790555060208201518160000160146101000a81548160ff021916908360ff16021790555060408201518160010155606082015181600201556080820151816003015560a08201518160040160006101000a81548173ffffffffffffffffffffffffffffffffffffffff021916908373ffffffffffffffffffffffffffffffffffffffff16021790555060c0820151816005015560e082015181600601556101008201518160070160006101000a81548160ff0219169083600281111561162557611624614d0c565b5b021790555090505060019050877f1311c8850315020cefa8da4a36e3e81b68690c96854daf6126a8a0dc81b8389d426040516116619190614afa565b60405180910390a25b6000600160008a8152602001908152602001600020905060008082600101548a68056bc75e2d6310000061169e9190615a5f565b6116a89190615ad0565b9050600073ffffffffffffffffffffffffffffffffffffffff168360000160009054906101000a900473ffffffffffffffffffffffffffffffffffffffff1673ffffffffffffffffffffffffffffffffffffffff16036117295782600101543468056bc75e2d6310000061171c9190615a5f565b6117269190615ad0565b90505b674563918244f40000811015801561174a575068015af1d78b58c400008111155b611789576040517f08c379a000000000000000000000000000000000000000000000000000000000815260040161178090615b4d565b60405180910390fd5b678ac7230489e8000068056bc75e2d631000006117a69190615b6d565b8360030154106118bb57600073ffffffffffffffffffffffffffffffffffffffff168360000160009054906101000a900473ffffffffffffffffffffffffffffffffffffffff1673ffffffffffffffffffffffffffffffffffffffff1603611863578260020154836001015461181c9190615b6d565b34101561185e576040517f08c379a000000000000000000000000000000000000000000000000000000000815260040161185590615bed565b60405180910390fd5b6118ba565b826002015483600101546118779190615b6d565b8a10156118b9576040517f08c379a00000000000000000000000000000000000000000000000000000000081526004016118b090615bed565b60405180910390fd5b5b5b600073ffffffffffffffffffffffffffffffffffffffff168360000160009054906101000a900473ffffffffffffffffffffffffffffffffffffffff1673ffffffffffffffffffffffffffffffffffffffff160361193357348360020160008282546119279190615c0d565b925050819055506119a0565b898360020160008282546119479190615c0d565b9250508190555061199f33308c8660000160009054906101000a900473ffffffffffffffffffffffffffffffffffffffff1673ffffffffffffffffffffffffffffffffffffffff16613e50909392919063ffffffff16565b5b808360030160008282546119b49190615c0d565b9250508190555082600101548360020154101580156119e0575068056bc75e2d63100000836003015410155b15611daa576000836003015484600101546119fb9190615b6d565b9050600068056bc75e2d631000008560030154611a189190615b6d565b90506000821115611b37578460010154856002018190555068056bc75e2d631000008560030181905550600073ffffffffffffffffffffffffffffffffffffffff168560000160009054906101000a900473ffffffffffffffffffffffffffffffffffffffff1673ffffffffffffffffffffffffffffffffffffffff1603611ae6573373ffffffffffffffffffffffffffffffffffffffff166108fc839081150290604051600060405180830381858888f19350505050158015611ae0573d6000803e3d6000fd5b50611b36565b611b3533838760000160009054906101000a900473ffffffffffffffffffffffffffffffffffffffff1673ffffffffffffffffffffffffffffffffffffffff16613c0f9092919063ffffffff16565b5b5b6000821115611b4f57818c611b4c9190615b6d565b9b505b6000811115611b67578083611b649190615b6d565b92505b60008a8a905011611bad576040517f08c379a0000000000000000000000000000000000000000000000000000000008152600401611ba490615c8d565b60405180910390fd5b60018560070160006101000a81548160ff02191690836002811115611bd557611bd4614d0c565b5b0217905550611d6b8e8b8b8080601f016020809104026020016040519081016040528093929190818152602001838380828437600081840152601f19601f8201169050808301925050505050505087604051806101200160405290816000820160009054906101000a900473ffffffffffffffffffffffffffffffffffffffff1673ffffffffffffffffffffffffffffffffffffffff1673ffffffffffffffffffffffffffffffffffffffff1681526020016000820160149054906101000a900460ff1660ff1660ff1681526020016001820154815260200160028201548152602001600382015481526020016004820160009054906101000a900473ffffffffffffffffffffffffffffffffffffffff1673ffffffffffffffffffffffffffffffffffffffff1673ffffffffffffffffffffffffffffffffffffffff16815260200160058201548152602001600682015481526020016007820160009054906101000a900460ff166002811115611d5057611d4f614d0c565b5b6002811115611d6257611d61614d0c565b5b81525050613ed9565b600193508c7f85b2801100f28fc35fd959cd22ae292ba862fb9aea7b58f70348b2c1f1045e4d42604051611d9f9190614afa565b60405180910390a250505b60405180606001604052808b815260200182815260200142815250600260008d815260200190815260200160002060003373ffffffffffffffffffffffffffffffffffffffff1673ffffffffffffffffffffffffffffffffffffffff168152602001908152602001600020600082015181600001556020820151816001015560408201518160020155905050600360008c8152602001908152602001600020339080600181540180825580915050600190039060005260206000200160009091909190916101000a81548173ffffffffffffffffffffffffffffffffffffffff021916908373ffffffffffffffffffffffffffffffffffffffff1602179055508115611eba57611eb98b614425565b5b8a3373ffffffffffffffffffffffffffffffffffffffff167fc70738c6eb053fce47fa85b7eaf75421fbab39b333d29bbc06fa5086e0380d148c84888742604051611f09959493929190615cad565b60405180910390a3505050505050505050505050565b60036020528160005260406000208181548110611f3b57600080fd5b906000526020600020016000915091509054906101000a900473ffffffffffffffffffffffffffffffffffffffff1681565b60006002811115611f8157611f80614d0c565b5b6006600083815260200190815260200160002060040160009054906101000a900460ff166002811115611fb757611fb6614d0c565b5b14611ff7576040517f08c379a0000000000000000000000000000000000000000000000000000000008152600401611fee90615d4c565b60405180910390fd5b6006600082815260200190815260200160002060030154341461204f576040517f08c379a000000000000000000000000000000000000000000000000000000000815260040161204690615db8565b60405180910390fd5b6000600660008381526020019081526020016000206040518060a0016040529081600082015481526020016001820160009054906101000a900473ffffffffffffffffffffffffffffffffffffffff1673ffffffffffffffffffffffffffffffffffffffff1673ffffffffffffffffffffffffffffffffffffffff16815260200160028201548152602001600382015481526020016004820160009054906101000a900460ff16600281111561210857612107614d0c565b5b600281111561211a57612119614d0c565b5b815250509050806040015160056000836020015173ffffffffffffffffffffffffffffffffffffffff1673ffffffffffffffffffffffffffffffffffffffff1681526020019081526020016000206000836000015181526020019081526020016000205410156121bf576040517f08c379a00000000000000000000000000000000000000000000000000000000081526004016121b690615e24565b60405180910390fd5b6121d781602001513383600001518460400151613712565b600160028111156121eb576121ea614d0c565b5b8160800151600281111561220257612201614d0c565b5b5050806020015173ffffffffffffffffffffffffffffffffffffffff166108fc82606001519081150290604051600060405180830381858888f19350505050158015612252573d6000803e3d6000fd5b5080600001513373ffffffffffffffffffffffffffffffffffffffff16826020015173ffffffffffffffffffffffffffffffffffffffff167fb7889afc24a1377827a403ddae2be8727e901df4a0ff6e09ce3b1d28aa5876c08585604001518660600151426040516122c79493929190615e44565b60405180910390a45050565b6122db613b91565b600081036122e7574790505b6122ef6107aa565b73ffffffffffffffffffffffffffffffffffffffff166108fc829081150290604051600060405180830381858888f19350505050158015612334573d6000803e3d6000fd5b5050565b60075481565b60086020528060005260406000206000915090508060000160009054906101000a900473ffffffffffffffffffffffffffffffffffffffff16905081565b600082116123bf576040517f08c379a00000000000000000000000000000000000000000000000000000000081526004016123b690615ed5565b60405180910390fd5b81600560003373ffffffffffffffffffffffffffffffffffffffff1673ffffffffffffffffffffffffffffffffffffffff1681526020019081526020016000206000858152602001908152602001600020541015612452576040517f08c379a000000000000000000000000000000000000000000000000000000000815260040161244990615f41565b60405180910390fd5b60008111612495576040517f08c379a000000000000000000000000000000000000000000000000000000000815260040161248c90615fad565b60405180910390fd5b6040518060a001604052808481526020013373ffffffffffffffffffffffffffffffffffffffff168152602001838152602001828152602001600060028111156124e2576124e1614d0c565b5b8152506006600060075481526020019081526020016000206000820151816000015560208201518160010160006101000a81548173ffffffffffffffffffffffffffffffffffffffff021916908373ffffffffffffffffffffffffffffffffffffffff160217905550604082015181600201556060820151816003015560808201518160040160006101000a81548160ff0219169083600281111561258a57612589614d0c565b5b0217905550905050823373ffffffffffffffffffffffffffffffffffffffff167ffdbedc04cab95c25d82482b2d11163c1445eebee76f033b58f1074a50675682e600760008154809291906125de90615fcd565b919050558585426040516125f59493929190615e44565b60405180910390a3505050565b60008686600081811061261857612617616015565b5b905060200201358973ffffffffffffffffffffffffffffffffffffffff163373ffffffffffffffffffffffffffffffffffffffff167f5b239fc4a39d468887d7653242bedeb27ca3880493ffb447a9756368238d48fc8b8989600081811061268357612682616015565b5b9050602002013588884260405161269e959493929190616044565b60405180910390a463f23a6e6160e01b905098975050505050505050565b600960009054906101000a900473ffffffffffffffffffffffffffffffffffffffff1673ffffffffffffffffffffffffffffffffffffffff166126fd614664565b73ffffffffffffffffffffffffffffffffffffffff1614612753576040517f08c379a000000000000000000000000000000000000000000000000000000000815260040161274a906160de565b60405180910390fd5b565b61275d613b91565b8273ffffffffffffffffffffffffffffffffffffffff1663f242432a306127826107aa565b85856040518563ffffffff1660e01b81526004016127a39493929190616124565b600060405180830381600087803b1580156127bd57600080fd5b505af11580156127d1573d6000803e3d6000fd5b50505050505050565b600060028111156127ee576127ed614d0c565b5b6001600083815260200190815260200160002060070160009054906101000a900460ff16600281111561282457612823614d0c565b5b14612864576040517f08c379a000000000000000000000000000000000000000000000000000000000815260040161285b906161c8565b60405180910390fd5b60006002600083815260200190815260200160002060003373ffffffffffffffffffffffffffffffffffffffff1673ffffffffffffffffffffffffffffffffffffffff16815260200190815260200160002060010154116128fa576040517f08c379a00000000000000000000000000000000000000000000000000000000081526004016128f190616234565b60405180910390fd5b60006002600083815260200190815260200160002060003373ffffffffffffffffffffffffffffffffffffffff1673ffffffffffffffffffffffffffffffffffffffff16815260200190815260200160002060000154905060006002600084815260200190815260200160002060003373ffffffffffffffffffffffffffffffffffffffff1673ffffffffffffffffffffffffffffffffffffffff168152602001908152602001600020600101549050816001600085815260200190815260200160002060020160008282546129d09190615b6d565b92505081905550806001600085815260200190815260200160002060030160008282546129fd9190615b6d565b925050819055506040518060600160405280600081526020016000815260200160008152506002600085815260200190815260200160002060003373ffffffffffffffffffffffffffffffffffffffff1673ffffffffffffffffffffffffffffffffffffffff16815260200190815260200160002060008201518160000155602082015181600101556040820151816002015590505060005b60036000858152602001908152602001600020805490508160ff161015612cbc573373ffffffffffffffffffffffffffffffffffffffff16600360008681526020019081526020016000208260ff1681548110612af657612af5616015565b5b9060005260206000200160009054906101000a900473ffffffffffffffffffffffffffffffffffffffff1673ffffffffffffffffffffffffffffffffffffffff1603612ca95760016003600086815260200190815260200160002080549050612b5f9190615b6d565b8160ff161015612c4c576003600085815260200190815260200160002060016003600087815260200190815260200160002080549050612b9f9190615b6d565b81548110612bb057612baf616015565b5b9060005260206000200160009054906101000a900473ffffffffffffffffffffffffffffffffffffffff16600360008681526020019081526020016000208260ff1681548110612c0357612c02616015565b5b9060005260206000200160006101000a81548173ffffffffffffffffffffffffffffffffffffffff021916908373ffffffffffffffffffffffffffffffffffffffff1602179055505b60036000858152602001908152602001600020805480612c6f57612c6e616254565b5b6001900381819060005260206000200160006101000a81549073ffffffffffffffffffffffffffffffffffffffff02191690559055612cbc565b8080612cb490616283565b915050612a96565b50600073ffffffffffffffffffffffffffffffffffffffff166001600085815260200190815260200160002060000160009054906101000a900473ffffffffffffffffffffffffffffffffffffffff1673ffffffffffffffffffffffffffffffffffffffff1603612d73573373ffffffffffffffffffffffffffffffffffffffff166108fc839081150290604051600060405180830381858888f19350505050158015612d6d573d6000803e3d6000fd5b50612dd5565b612dd433836001600087815260200190815260200160002060000160009054906101000a900473ffffffffffffffffffffffffffffffffffffffff1673ffffffffffffffffffffffffffffffffffffffff16613c0f9092919063ffffffff16565b5b823373ffffffffffffffffffffffffffffffffffffffff167f217fc8ac6cc86fac5bc310269fe5bca85d6ed342b78ec630b238608c4e136284848442604051612e2093929190614c6c565b60405180910390a3505050565b50565b60016020528060005260406000206000915090508060000160009054906101000a900473ffffffffffffffffffffffffffffffffffffffff16908060000160149054906101000a900460ff16908060010154908060020154908060030154908060040160009054906101000a900473ffffffffffffffffffffffffffffffffffffffff16908060050154908060060154908060070160009054906101000a900460ff16905089565b6000848773ffffffffffffffffffffffffffffffffffffffff163373ffffffffffffffffffffffffffffffffffffffff167f5b239fc4a39d468887d7653242bedeb27ca3880493ffb447a9756368238d48fc8988888842604051612f40959493929190616044565b60405180910390a463f23a6e6160e01b90509695505050505050565b68056bc75e2d63100000600560003373ffffffffffffffffffffffffffffffffffffffff1673ffffffffffffffffffffffffffffffffffffffff16815260200190815260200160002060008381526020019081526020016000205414612ff7576040517f08c379a0000000000000000000000000000000000000000000000000000000008152600401612fee906162f8565b60405180910390fd5b600073ffffffffffffffffffffffffffffffffffffffff166001600083815260200190815260200160002060040160009054906101000a900473ffffffffffffffffffffffffffffffffffffffff1673ffffffffffffffffffffffffffffffffffffffff160361309c576040517f08c379a000000000000000000000000000000000000000000000000000000000815260040161309390616364565b60405180910390fd5b60006001600083815260200190815260200160002060060154036131f2573073ffffffffffffffffffffffffffffffffffffffff166001600083815260200190815260200160002060040160009054906101000a900473ffffffffffffffffffffffffffffffffffffffff1673ffffffffffffffffffffffffffffffffffffffff16636352211e60016000858152602001908152602001600020600501546040518263ffffffff1660e01b81526004016131569190614afa565b602060405180830381865afa158015613173573d6000803e3d6000fd5b505050506040513d601f19601f820116820180604052508101906131979190616399565b73ffffffffffffffffffffffffffffffffffffffff16146131ed576040517f08c379a00000000000000000000000000000000000000000000000000000000081526004016131e490616412565b60405180910390fd5b613312565b60016000828152602001908152602001600020600601546001600083815260200190815260200160002060040160009054906101000a900473ffffffffffffffffffffffffffffffffffffffff1673ffffffffffffffffffffffffffffffffffffffff1662fdd58e3060016000868152602001908152602001600020600501546040518363ffffffff1660e01b815260040161328f929190616432565b602060405180830381865afa1580156132ac573d6000803e3d6000fd5b505050506040513d601f19601f820116820180604052508101906132d09190615600565b1015613311576040517f08c379a0000000000000000000000000000000000000000000000000000000008152600401613308906164a7565b60405180910390fd5b5b61336f33600083600560003373ffffffffffffffffffffffffffffffffffffffff1673ffffffffffffffffffffffffffffffffffffffff168152602001908152602001600020600086815260200190815260200160002054613712565b6000600560003373ffffffffffffffffffffffffffffffffffffffff1673ffffffffffffffffffffffffffffffffffffffff16815260200190815260200160002060008381526020019081526020016000208190555060006001600083815260200190815260200160002060060154036134a3576001600082815260200190815260200160002060040160009054906101000a900473ffffffffffffffffffffffffffffffffffffffff1673ffffffffffffffffffffffffffffffffffffffff166342842e0e303360016000868152602001908152602001600020600501546040518463ffffffff1660e01b815260040161346c9392919061562d565b600060405180830381600087803b15801561348657600080fd5b505af115801561349a573d6000803e3d6000fd5b50505050613577565b6001600082815260200190815260200160002060040160009054906101000a900473ffffffffffffffffffffffffffffffffffffffff1673ffffffffffffffffffffffffffffffffffffffff1663f242432a3033600160008681526020019081526020016000206005015460016000878152602001908152602001600020600601546040518563ffffffff1660e01b81526004016135449493929190616124565b600060405180830381600087803b15801561355e57600080fd5b505af1158015613572573d6000803e3d6000fd5b505050505b60016000828152602001908152602001600020600501546001600083815260200190815260200160002060040160009054906101000a900473ffffffffffffffffffffffffffffffffffffffff1673ffffffffffffffffffffffffffffffffffffffff163373ffffffffffffffffffffffffffffffffffffffff167f02f809a60e7e0a6f44fdded664eb3c10eb20e82b91fb4afd7b893fe8b8d5d4b78460016000878152602001908152602001600020600601544260405161363b93929190614c6c565b60405180910390a450565b61364e613b91565b600073ffffffffffffffffffffffffffffffffffffffff168173ffffffffffffffffffffffffffffffffffffffff16036136bd576040517f08c379a00000000000000000000000000000000000000000000000000000000081526004016136b490616539565b60405180910390fd5b6136c681613c95565b50565b600960009054906101000a900473ffffffffffffffffffffffffffffffffffffffff1681565b6000808273ffffffffffffffffffffffffffffffffffffffff163b119050919050565b80600560008673ffffffffffffffffffffffffffffffffffffffff1673ffffffffffffffffffffffffffffffffffffffff168152602001908152602001600020600084815260200190815260200160002060008282546137729190615b6d565b9250508190555080600560008573ffffffffffffffffffffffffffffffffffffffff1673ffffffffffffffffffffffffffffffffffffffff168152602001908152602001600020600084815260200190815260200160002060008282546137d99190615c0d565b925050819055506000600560008673ffffffffffffffffffffffffffffffffffffffff1673ffffffffffffffffffffffffffffffffffffffff16815260200190815260200160002060008481526020019081526020016000205403613acd5760005b600460008673ffffffffffffffffffffffffffffffffffffffff1673ffffffffffffffffffffffffffffffffffffffff168152602001908152602001600020805490508160ff161015613acb5782600460008773ffffffffffffffffffffffffffffffffffffffff1673ffffffffffffffffffffffffffffffffffffffff1681526020019081526020016000208260ff16815481106138dd576138dc616015565b5b906000526020600020015403613ab8576001600460008773ffffffffffffffffffffffffffffffffffffffff1673ffffffffffffffffffffffffffffffffffffffff1681526020019081526020016000208054905061393c9190615b6d565b8160ff1614613a5257600460008673ffffffffffffffffffffffffffffffffffffffff1673ffffffffffffffffffffffffffffffffffffffff1681526020019081526020016000206001600460008873ffffffffffffffffffffffffffffffffffffffff1673ffffffffffffffffffffffffffffffffffffffff168152602001908152602001600020805490506139d39190615b6d565b815481106139e4576139e3616015565b5b9060005260206000200154600460008773ffffffffffffffffffffffffffffffffffffffff1673ffffffffffffffffffffffffffffffffffffffff1681526020019081526020016000208260ff1681548110613a4357613a42616015565b5b90600052602060002001819055505b600460008673ffffffffffffffffffffffffffffffffffffffff1673ffffffffffffffffffffffffffffffffffffffff168152602001908152602001600020805480613aa157613aa0616254565b5b600190038181906000526020600020016000905590555b8080613ac390616283565b91505061383b565b505b80600560008573ffffffffffffffffffffffffffffffffffffffff1673ffffffffffffffffffffffffffffffffffffffff16815260200190815260200160002060008481526020019081526020016000205403613b8b57600460008473ffffffffffffffffffffffffffffffffffffffff1673ffffffffffffffffffffffffffffffffffffffff1681526020019081526020016000208290806001815401808255809150506001900390600052602060002001600090919091909150555b50505050565b613b99614664565b73ffffffffffffffffffffffffffffffffffffffff16613bb76107aa565b73ffffffffffffffffffffffffffffffffffffffff1614613c0d576040517f08c379a0000000000000000000000000000000000000000000000000000000008152600401613c04906165a5565b60405180910390fd5b565b613c908363a9059cbb60e01b8484604051602401613c2e929190616432565b604051602081830303815290604052907bffffffffffffffffffffffffffffffffffffffffffffffffffffffff19166020820180517bffffffffffffffffffffffffffffffffffffffffffffffffffffffff838183161783525050505061466c565b505050565b60008060009054906101000a900473ffffffffffffffffffffffffffffffffffffffff169050816000806101000a81548173ffffffffffffffffffffffffffffffffffffffff021916908373ffffffffffffffffffffffffffffffffffffffff1602179055508173ffffffffffffffffffffffffffffffffffffffff168173ffffffffffffffffffffffffffffffffffffffff167f8be0079c531659141344cd1fd0a4f28419497f9722a3daafe3b4186f6b6457e060405160405180910390a35050565b600083838360000151846020015185604001518660a001518760c001518860e00151604051602001613d929897969594939291906166dc565b6040516020818303038152906040528051906020012090509392505050565b600081604051602001613dc49190616832565b604051602081830303815290604052805190602001209050919050565b600080600080613df085614733565b92509250925060018684848460405160008152602001604052604051613e199493929190616867565b6020604051602081039080840390855afa158015613e3b573d6000803e3d6000fd5b50505060206040510351935050505092915050565b613ed3846323b872dd60e01b858585604051602401613e719392919061562d565b604051602081830303815290604052907bffffffffffffffffffffffffffffffffffffffffffffffffffffffff19166020820180517bffffffffffffffffffffffffffffffffffffffffffffffffffffffff838183161783525050505061466c565b50505050565b60006060600073ffffffffffffffffffffffffffffffffffffffff16836000015173ffffffffffffffffffffffffffffffffffffffff1603614269577f58325932000000000000000000000000000000000000000000000000000000007bffffffffffffffffffffffffffffffffffffffffffffffffffffffff1916857bffffffffffffffffffffffffffffffffffffffffffffffffffffffff191603614030577374312363e45dcaba76c59ec49a7aa8a65a67eed373ffffffffffffffffffffffffffffffffffffffff16836040015163357a150b60e01b86604051602001613fc492919061691d565b604051602081830303815290604052604051613fe09190616945565b60006040518083038185875af1925050503d806000811461401d576040519150601f19603f3d011682016040523d82523d6000602084013e614022565b606091505b508092508193505050614264565b7f4f504e53000000000000000000000000000000000000000000000000000000007bffffffffffffffffffffffffffffffffffffffffffffffffffffffff1916857bffffffffffffffffffffffffffffffffffffffffffffffffffffffff191603614146576e6c3852cbef3e08e8df289169ede58173ffffffffffffffffffffffffffffffffffffffff16836040015163b3a34c4c60e01b866040516020016140da92919061691d565b6040516020818303038152906040526040516140f69190616945565b60006040518083038185875af1925050503d8060008114614133576040519150601f19603f3d011682016040523d82523d6000602084013e614138565b606091505b508092508193505050614263565b7f4c4f5241000000000000000000000000000000000000000000000000000000007bffffffffffffffffffffffffffffffffffffffffffffffffffffffff1916857bffffffffffffffffffffffffffffffffffffffffffffffffffffffff191603614261577359728544b08ab483533076417fbbb2fd0b17ce3a73ffffffffffffffffffffffffffffffffffffffff16836040015163b4e4b29660e01b866040516020016141f592919061691d565b6040516020818303038152906040526040516142119190616945565b60006040518083038185875af1925050503d806000811461424e576040519150601f19603f3d011682016040523d82523d6000602084013e614253565b606091505b508092508193505050614262565b5b5b5b61441e565b7f58325932000000000000000000000000000000000000000000000000000000007bffffffffffffffffffffffffffffffffffffffffffffffffffffffff1916857bffffffffffffffffffffffffffffffffffffffffffffffffffffffff19160361441c57826000015173ffffffffffffffffffffffffffffffffffffffff1663395093517374312363e45dcaba76c59ec49a7aa8a65a67eed385604001516040518363ffffffff1660e01b8152600401614325929190616432565b6020604051808303816000875af1158015614344573d6000803e3d6000fd5b505050506040513d601f19601f820116820180604052508101906143689190616988565b507374312363e45dcaba76c59ec49a7aa8a65a67eed373ffffffffffffffffffffffffffffffffffffffff16600063357a150b60e01b866040516020016143b092919061691d565b6040516020818303038152906040526040516143cc9190616945565b60006040518083038185875af1925050503d8060008114614409576040519150601f19603f3d011682016040523d82523d6000602084013e61440e565b606091505b50809250819350505061441d565b5b5b5050505050565b60005b60036000838152602001908152602001600020805490508160ff1610156146605760046000600360008581526020019081526020016000208360ff168154811061447557614474616015565b5b9060005260206000200160009054906101000a900473ffffffffffffffffffffffffffffffffffffffff1673ffffffffffffffffffffffffffffffffffffffff1673ffffffffffffffffffffffffffffffffffffffff168152602001908152602001600020829080600181540180825580915050600190039060005260206000200160009091909190915055600260008381526020019081526020016000206000600360008581526020019081526020016000208360ff168154811061453e5761453d616015565b5b9060005260206000200160009054906101000a900473ffffffffffffffffffffffffffffffffffffffff1673ffffffffffffffffffffffffffffffffffffffff1673ffffffffffffffffffffffffffffffffffffffff1681526020019081526020016000206001015460056000600360008681526020019081526020016000208460ff16815481106145d3576145d2616015565b5b9060005260206000200160009054906101000a900473ffffffffffffffffffffffffffffffffffffffff1673ffffffffffffffffffffffffffffffffffffffff1673ffffffffffffffffffffffffffffffffffffffff168152602001908152602001600020600084815260200190815260200160002081905550808061465890616283565b915050614428565b5050565b600033905090565b60006146ce826040518060400160405280602081526020017f5361666545524332303a206c6f772d6c6576656c2063616c6c206661696c65648152508573ffffffffffffffffffffffffffffffffffffffff166147629092919063ffffffff16565b905060008151111561472e57808060200190518101906146ee9190616988565b61472d576040517f08c379a000000000000000000000000000000000000000000000000000000000815260040161472490616a27565b60405180910390fd5b5b505050565b6000806000604184511461474657600080fd5b6020840151915060408401519050604184015192509193909250565b6060614771848460008561477a565b90509392505050565b6060824710156147bf576040517f08c379a00000000000000000000000000000000000000000000000000000000081526004016147b690616ab9565b60405180910390fd5b6147c8856136ef565b614807576040517f08c379a00000000000000000000000000000000000000000000000000000000081526004016147fe90616b25565b60405180910390fd5b6000808673ffffffffffffffffffffffffffffffffffffffff1685876040516148309190616945565b60006040518083038185875af1925050503d806000811461486d576040519150601f19603f3d011682016040523d82523d6000602084013e614872565b606091505b509150915061488282828661488e565b92505050949350505050565b6060831561489e578290506148ee565b6000835111156148b15782518084602001fd5b816040517f08c379a00000000000000000000000000000000000000000000000000000000081526004016148e59190616b89565b60405180910390fd5b9392505050565b6000604051905090565b600080fd5b600080fd5b60007fffffffff0000000000000000000000000000000000000000000000000000000082169050919050565b61493e81614909565b811461494957600080fd5b50565b60008135905061495b81614935565b92915050565b600060208284031215614977576149766148ff565b5b60006149858482850161494c565b91505092915050565b60008115159050919050565b6149a38161498e565b82525050565b60006020820190506149be600083018461499a565b92915050565b600073ffffffffffffffffffffffffffffffffffffffff82169050919050565b60006149ef826149c4565b9050919050565b6149ff816149e4565b8114614a0a57600080fd5b50565b600081359050614a1c816149f6565b92915050565b6000819050919050565b614a3581614a22565b8114614a4057600080fd5b50565b600081359050614a5281614a2c565b92915050565b600080600060608486031215614a7157614a706148ff565b5b6000614a7f86828701614a0d565b9350506020614a9086828701614a43565b9250506040614aa186828701614a43565b9150509250925092565b60008060408385031215614ac257614ac16148ff565b5b6000614ad085828601614a0d565b9250506020614ae185828601614a43565b9150509250929050565b614af481614a22565b82525050565b6000602082019050614b0f6000830184614aeb565b92915050565b600080fd5b600080fd5b600080fd5b60008083601f840112614b3a57614b39614b15565b5b8235905067ffffffffffffffff811115614b5757614b56614b1a565b5b602083019150836001820283011115614b7357614b72614b1f565b5b9250929050565b600080600080600060808688031215614b9657614b956148ff565b5b6000614ba488828901614a0d565b9550506020614bb588828901614a0d565b9450506040614bc688828901614a43565b935050606086013567ffffffffffffffff811115614be757614be6614904565b5b614bf388828901614b24565b92509250509295509295909350565b614c0b81614909565b82525050565b6000602082019050614c266000830184614c02565b92915050565b60008060408385031215614c4357614c426148ff565b5b6000614c5185828601614a43565b9250506020614c6285828601614a0d565b9150509250929050565b6000606082019050614c816000830186614aeb565b614c8e6020830185614aeb565b614c9b6040830184614aeb565b949350505050565b600060208284031215614cb957614cb86148ff565b5b6000614cc784828501614a0d565b91505092915050565b600060208284031215614ce657614ce56148ff565b5b6000614cf484828501614a43565b91505092915050565b614d06816149e4565b82525050565b7f4e487b7100000000000000000000000000000000000000000000000000000000600052602160045260246000fd5b60038110614d4c57614d4b614d0c565b5b50565b6000819050614d5d82614d3b565b919050565b6000614d6d82614d4f565b9050919050565b614d7d81614d62565b82525050565b600060a082019050614d986000830188614aeb565b614da56020830187614cfd565b614db26040830186614aeb565b614dbf6060830185614aeb565b614dcc6080830184614d74565b9695505050505050565b600080fd5b6000601f19601f8301169050919050565b7f4e487b7100000000000000000000000000000000000000000000000000000000600052604160045260246000fd5b614e2482614ddb565b810181811067ffffffffffffffff82111715614e4357614e42614dec565b5b80604052505050565b6000614e566148f5565b9050614e628282614e1b565b919050565b600060ff82169050919050565b614e7d81614e67565b8114614e8857600080fd5b50565b600081359050614e9a81614e74565b92915050565b60038110614ead57600080fd5b50565b600081359050614ebf81614ea0565b92915050565b60006101208284031215614edc57614edb614dd6565b5b614ee7610120614e4c565b90506000614ef784828501614a0d565b6000830152506020614f0b84828501614e8b565b6020830152506040614f1f84828501614a43565b6040830152506060614f3384828501614a43565b6060830152506080614f4784828501614a43565b60808301525060a0614f5b84828501614a0d565b60a08301525060c0614f6f84828501614a43565b60c08301525060e0614f8384828501614a43565b60e083015250610100614f9884828501614eb0565b6101008301525092915050565b6000806000806000806000806101c0898b031215614fc657614fc56148ff565b5b6000614fd48b828c0161494c565b9850506020614fe58b828c01614a43565b9750506040614ff68b828c01614a43565b96505060606150078b828c01614ec5565b95505061018089013567ffffffffffffffff81111561502957615028614904565b5b6150358b828c01614b24565b94509450506101a089013567ffffffffffffffff81111561505957615058614904565b5b6150658b828c01614b24565b92509250509295985092959890939650565b6000806040838503121561508e5761508d6148ff565b5b600061509c85828601614a43565b92505060206150ad85828601614a43565b9150509250929050565b60006020820190506150cc6000830184614cfd565b92915050565b6000806000606084860312156150eb576150ea6148ff565b5b60006150f986828701614a43565b935050602061510a86828701614a43565b925050604061511b86828701614a43565b9150509250925092565b60008083601f84011261513b5761513a614b15565b5b8235905067ffffffffffffffff81111561515857615157614b1a565b5b60208301915083602082028301111561517457615173614b1f565b5b9250929050565b60008060008060008060008060a0898b03121561519b5761519a6148ff565b5b60006151a98b828c01614a0d565b98505060206151ba8b828c01614a0d565b975050604089013567ffffffffffffffff8111156151db576151da614904565b5b6151e78b828c01615125565b9650965050606089013567ffffffffffffffff81111561520a57615209614904565b5b6152168b828c01615125565b9450945050608089013567ffffffffffffffff81111561523957615238614904565b5b6152458b828c01614b24565b92509250509295985092959890939650565b61526081614e67565b82525050565b60006101208201905061527c600083018c614cfd565b615289602083018b615257565b615296604083018a614aeb565b6152a36060830189614aeb565b6152b06080830188614aeb565b6152bd60a0830187614cfd565b6152ca60c0830186614aeb565b6152d760e0830185614aeb565b6152e5610100830184614d74565b9a9950505050505050505050565b60008060008060008060a087890312156153105761530f6148ff565b5b600061531e89828a01614a0d565b965050602061532f89828a01614a0d565b955050604061534089828a01614a43565b945050606061535189828a01614a43565b935050608087013567ffffffffffffffff81111561537257615371614904565b5b61537e89828a01614b24565b92509250509295509295509295565b600082825260208201905092915050565b7f3134000000000000000000000000000000000000000000000000000000000000600082015250565b60006153d460028361538d565b91506153df8261539e565b602082019050919050565b60006020820190508181036000830152615403816153c7565b9050919050565b7f3135000000000000000000000000000000000000000000000000000000000000600082015250565b600061544060028361538d565b915061544b8261540a565b602082019050919050565b6000602082019050818103600083015261546f81615433565b9050919050565b7f3136000000000000000000000000000000000000000000000000000000000000600082015250565b60006154ac60028361538d565b91506154b782615476565b602082019050919050565b600060208201905081810360008301526154db8161549f565b9050919050565b60006040820190506154f76000830185614aeb565b6155046020830184614aeb565b9392505050565b6000819050919050565b6000819050919050565b600061553a6155356155308461550b565b615515565b614a22565b9050919050565b61554a8161551f565b82525050565b600082825260208201905092915050565b82818337600083830152505050565b600061557c8385615550565b9350615589838584615561565b61559283614ddb565b840190509392505050565b60006080820190506155b26000830188614cfd565b6155bf6020830187615541565b81810360408301526155d2818587615570565b90506155e16060830184614aeb565b9695505050505050565b6000815190506155fa81614a2c565b92915050565b600060208284031215615616576156156148ff565b5b6000615624848285016155eb565b91505092915050565b60006060820190506156426000830186614cfd565b61564f6020830185614cfd565b61565c6040830184614aeb565b949350505050565b7f3031000000000000000000000000000000000000000000000000000000000000600082015250565b600061569a60028361538d565b91506156a582615664565b602082019050919050565b600060208201905081810360008301526156c98161568d565b9050919050565b7f3032000000000000000000000000000000000000000000000000000000000000600082015250565b600061570660028361538d565b9150615711826156d0565b602082019050919050565b60006020820190508181036000830152615735816156f9565b9050919050565b7f3230000000000000000000000000000000000000000000000000000000000000600082015250565b600061577260028361538d565b915061577d8261573c565b602082019050919050565b600060208201905081810360008301526157a181615765565b9050919050565b7f3231000000000000000000000000000000000000000000000000000000000000600082015250565b60006157de60028361538d565b91506157e9826157a8565b602082019050919050565b6000602082019050818103600083015261580d816157d1565b9050919050565b7f3034000000000000000000000000000000000000000000000000000000000000600082015250565b600061584a60028361538d565b915061585582615814565b602082019050919050565b600060208201905081810360008301526158798161583d565b9050919050565b7f3035000000000000000000000000000000000000000000000000000000000000600082015250565b60006158b660028361538d565b91506158c182615880565b602082019050919050565b600060208201905081810360008301526158e5816158a9565b9050919050565b7f3036000000000000000000000000000000000000000000000000000000000000600082015250565b600061592260028361538d565b915061592d826158ec565b602082019050919050565b6000602082019050818103600083015261595181615915565b9050919050565b7f3037000000000000000000000000000000000000000000000000000000000000600082015250565b600061598e60028361538d565b915061599982615958565b602082019050919050565b600060208201905081810360008301526159bd81615981565b9050919050565b7f3038000000000000000000000000000000000000000000000000000000000000600082015250565b60006159fa60028361538d565b9150615a05826159c4565b602082019050919050565b60006020820190508181036000830152615a29816159ed565b9050919050565b7f4e487b7100000000000000000000000000000000000000000000000000000000600052601160045260246000fd5b6000615a6a82614a22565b9150615a7583614a22565b9250828202615a8381614a22565b91508282048414831517615a9a57615a99615a30565b5b5092915050565b7f4e487b7100000000000000000000000000000000000000000000000000000000600052601260045260246000fd5b6000615adb82614a22565b9150615ae683614a22565b925082615af657615af5615aa1565b5b828204905092915050565b7f3039000000000000000000000000000000000000000000000000000000000000600082015250565b6000615b3760028361538d565b9150615b4282615b01565b602082019050919050565b60006020820190508181036000830152615b6681615b2a565b9050919050565b6000615b7882614a22565b9150615b8383614a22565b9250828203905081811115615b9b57615b9a615a30565b5b92915050565b7f3130000000000000000000000000000000000000000000000000000000000000600082015250565b6000615bd760028361538d565b9150615be282615ba1565b602082019050919050565b60006020820190508181036000830152615c0681615bca565b9050919050565b6000615c1882614a22565b9150615c2383614a22565b9250828201905080821115615c3b57615c3a615a30565b5b92915050565b7f3131000000000000000000000000000000000000000000000000000000000000600082015250565b6000615c7760028361538d565b9150615c8282615c41565b602082019050919050565b60006020820190508181036000830152615ca681615c6a565b9050919050565b600060a082019050615cc26000830188614aeb565b615ccf6020830187614aeb565b615cdc604083018661499a565b615ce9606083018561499a565b615cf66080830184614aeb565b9695505050505050565b7f3232000000000000000000000000000000000000000000000000000000000000600082015250565b6000615d3660028361538d565b9150615d4182615d00565b602082019050919050565b60006020820190508181036000830152615d6581615d29565b9050919050565b7f3233000000000000000000000000000000000000000000000000000000000000600082015250565b6000615da260028361538d565b9150615dad82615d6c565b602082019050919050565b60006020820190508181036000830152615dd181615d95565b9050919050565b7f3234000000000000000000000000000000000000000000000000000000000000600082015250565b6000615e0e60028361538d565b9150615e1982615dd8565b602082019050919050565b60006020820190508181036000830152615e3d81615e01565b9050919050565b6000608082019050615e596000830187614aeb565b615e666020830186614aeb565b615e736040830185614aeb565b615e806060830184614aeb565b95945050505050565b7f3137000000000000000000000000000000000000000000000000000000000000600082015250565b6000615ebf60028361538d565b9150615eca82615e89565b602082019050919050565b60006020820190508181036000830152615eee81615eb2565b9050919050565b7f3138000000000000000000000000000000000000000000000000000000000000600082015250565b6000615f2b60028361538d565b9150615f3682615ef5565b602082019050919050565b60006020820190508181036000830152615f5a81615f1e565b9050919050565b7f3139000000000000000000000000000000000000000000000000000000000000600082015250565b6000615f9760028361538d565b9150615fa282615f61565b602082019050919050565b60006020820190508181036000830152615fc681615f8a565b9050919050565b6000615fd882614a22565b91507fffffffffffffffffffffffffffffffffffffffffffffffffffffffffffffffff820361600a57616009615a30565b5b600182019050919050565b7f4e487b7100000000000000000000000000000000000000000000000000000000600052603260045260246000fd5b60006080820190506160596000830188614cfd565b6160666020830187614aeb565b8181036040830152616079818587615570565b90506160886060830184614aeb565b9695505050505050565b7f3030000000000000000000000000000000000000000000000000000000000000600082015250565b60006160c860028361538d565b91506160d382616092565b602082019050919050565b600060208201905081810360008301526160f7816160bb565b9050919050565b50565b600061610e600083615550565b9150616119826160fe565b600082019050919050565b600060a0820190506161396000830187614cfd565b6161466020830186614cfd565b6161536040830185614aeb565b6161606060830184614aeb565b818103608083015261617181616101565b905095945050505050565b7f3132000000000000000000000000000000000000000000000000000000000000600082015250565b60006161b260028361538d565b91506161bd8261617c565b602082019050919050565b600060208201905081810360008301526161e1816161a5565b9050919050565b7f3133000000000000000000000000000000000000000000000000000000000000600082015250565b600061621e60028361538d565b9150616229826161e8565b602082019050919050565b6000602082019050818103600083015261624d81616211565b9050919050565b7f4e487b7100000000000000000000000000000000000000000000000000000000600052603160045260246000fd5b600061628e82614e67565b915060ff82036162a1576162a0615a30565b5b600182019050919050565b7f3235000000000000000000000000000000000000000000000000000000000000600082015250565b60006162e260028361538d565b91506162ed826162ac565b602082019050919050565b60006020820190508181036000830152616311816162d5565b9050919050565b7f3236000000000000000000000000000000000000000000000000000000000000600082015250565b600061634e60028361538d565b915061635982616318565b602082019050919050565b6000602082019050818103600083015261637d81616341565b9050919050565b600081519050616393816149f6565b92915050565b6000602082840312156163af576163ae6148ff565b5b60006163bd84828501616384565b91505092915050565b7f3237000000000000000000000000000000000000000000000000000000000000600082015250565b60006163fc60028361538d565b9150616407826163c6565b602082019050919050565b6000602082019050818103600083015261642b816163ef565b9050919050565b60006040820190506164476000830185614cfd565b6164546020830184614aeb565b9392505050565b7f3238000000000000000000000000000000000000000000000000000000000000600082015250565b600061649160028361538d565b915061649c8261645b565b602082019050919050565b600060208201905081810360008301526164c081616484565b9050919050565b7f4f776e61626c653a206e6577206f776e657220697320746865207a65726f206160008201527f6464726573730000000000000000000000000000000000000000000000000000602082015250565b600061652360268361538d565b915061652e826164c7565b604082019050919050565b6000602082019050818103600083015261655281616516565b9050919050565b7f4f776e61626c653a2063616c6c6572206973206e6f7420746865206f776e6572600082015250565b600061658f60208361538d565b915061659a82616559565b602082019050919050565b600060208201905081810360008301526165be81616582565b9050919050565b6000819050919050565b6165e06165db82614909565b6165c5565b82525050565b600081905092915050565b7f2d00000000000000000000000000000000000000000000000000000000000000600082015250565b60006166276001836165e6565b9150616632826165f1565b600182019050919050565b6000819050919050565b61665861665382614a22565b61663d565b82525050565b60008160601b9050919050565b60006166768261665e565b9050919050565b60006166888261666b565b9050919050565b6166a061669b826149e4565b61667d565b82525050565b60008160f81b9050919050565b60006166be826166a6565b9050919050565b6166d66166d182614e67565b6166b3565b82525050565b60006166e8828b6165cf565b6004820191506166f78261661a565b9150616703828a616647565b6020820191506167128261661a565b915061671e828961668f565b60148201915061672d8261661a565b915061673982886166c5565b6001820191506167488261661a565b91506167548287616647565b6020820191506167638261661a565b915061676f828661668f565b60148201915061677e8261661a565b915061678a8285616647565b6020820191506167998261661a565b91506167a58284616647565b6020820191508190509998505050505050505050565b7f19457468657265756d205369676e6564204d6573736167653a0a333200000000600082015250565b60006167f1601c836165e6565b91506167fc826167bb565b601c82019050919050565b6000819050919050565b6000819050919050565b61682c61682782616807565b616811565b82525050565b600061683d826167e4565b9150616849828461681b565b60208201915081905092915050565b61686181616807565b82525050565b600060808201905061687c6000830187616858565b6168896020830186615257565b6168966040830185616858565b6168a36060830184616858565b95945050505050565b600081519050919050565b600081905092915050565b60005b838110156168e05780820151818401526020810190506168c5565b60008484015250505050565b60006168f7826168ac565b61690181856168b7565b93506169118185602086016168c2565b80840191505092915050565b600061692982856165cf565b60048201915061693982846168ec565b91508190509392505050565b600061695182846168ec565b915081905092915050565b6169658161498e565b811461697057600080fd5b50565b6000815190506169828161695c565b92915050565b60006020828403121561699e5761699d6148ff565b5b60006169ac84828501616973565b91505092915050565b7f5361666545524332303a204552433230206f7065726174696f6e20646964206e60008201527f6f74207375636365656400000000000000000000000000000000000000000000602082015250565b6000616a11602a8361538d565b9150616a1c826169b5565b604082019050919050565b60006020820190508181036000830152616a4081616a04565b9050919050565b7f416464726573733a20696e73756666696369656e742062616c616e636520666f60008201527f722063616c6c0000000000000000000000000000000000000000000000000000602082015250565b6000616aa360268361538d565b9150616aae82616a47565b604082019050919050565b60006020820190508181036000830152616ad281616a96565b9050919050565b7f416464726573733a2063616c6c20746f206e6f6e2d636f6e7472616374000000600082015250565b6000616b0f601d8361538d565b9150616b1a82616ad9565b602082019050919050565b60006020820190508181036000830152616b3e81616b02565b9050919050565b600081519050919050565b6000616b5b82616b45565b616b65818561538d565b9350616b758185602086016168c2565b616b7e81614ddb565b840191505092915050565b60006020820190508181036000830152616ba38184616b50565b90509291505056fea26469706673582212203532b0b299a03a1481041125ad110a88944e7c90eafd8e2d1b6dc08cbee2737b64736f6c63430008110033",
    "linkReferences": {},
    "deployedLinkReferences": {}
}